:040000000DEF00F010
:04000800B9EF03F059
:10001800C0009FEF02F00000000000000000002F69
:10002800000000000700070000147F147F1400245C
:100038002A7F2A1200231308646200364955225089
:1000480000000503000000001C22410000004122BE
:100058001C000014083E08140008083E08080000A8
:1000680000A06000000808080808000060600000A0
:10007800002010080402003E5149453E0000427F1E
:100088004000004261514946002141454B3100186A
:1000980014127F10002745454539003C4A4949302C
:1000A80000017109050300364949493600064949E6
:1000B800291E0000363600000000563600000008F1
:1000C80014224100001414141414000041221408CE
:1000D80000020151090600324959513E007C1211B3
:1000E800127C007F49494936003E41414122007F48
:1000F8004141221C007F49494941007F0909090102
:10010800003E4149497A007F0808087F0000417F86
:100118004100002040413F01007F08142241007F38
:1001280040404040007F020C027F007F0408107F9F
:10013800003E4141413E007F09090906003E415108
:10014800215E007F091929460046494949310001C5
:10015800017F0101003F4040403F001F2040201F19
:10016800003F4038403F00631408146300070870DC
:10017800080700615149454300007F414100AA55E5
:10018800AA55AA55000041417F000004020102045B
:100198000040404040400000030500000020545447
:1001A8005478007F48444438003844444420003898
:1001B8004444487F00385454541800087E0901020A
:1001C8000018A4A4A47C007F080404780000447DDF
:1001D8004000004080847D00007F1028440000001B
:1001E800417F4000007C04180478007C08040478EF
:1001F80000384444443800FC2424241800182424DB
:1002080018FC007C080404080048545454200004D6
:100218003F444020003C4040207C001C2040201CE3
:10022800003C4030403C004428102844001CA0A05A
:10023800A07C004464544C440000107C8200000000
:1002480000FF00000000827C10000000060909067B
:10025800256E600094F007F0086A600050F009F01D
:100268000A6A3EEC03F0600094F01AF01B6A600022
:1002780050F01CF01D6A000E276E000E266E000E50
:10028800276E000E266E4DD026501524176E275067
:100298001620186E60005FF0F6FF600063F0F7FF4D
:1002A80008006F00D4FF19F0E00E1924016E026AED
:1002B800FF0E0222000E046E050E036E41EC04F0E0
:1002C800600004F023F0600008F024F0000E286EAF
:1002D800000E286E040E286401D016D0B30E232415
:1002E800F66E7E0E2420F76E2850010D1E0EF324A4
:1002F800D96E000EF420DA6E08006F00D7FFDFFF1A
:10030800234A242A282AE6D71E0E0A6E000E0B6EF0
:10031800050E0C6ED6EC04F0000E18EC05F0264A1B
:10032800272A600054F001F0600058F002F094ECC5
:1003380003F00150265C02502758D8B01200A4D709
:10034800AE0E22EC05F0200E22EC05F0100E22EC89
:1003580005F0B00E22EC05F0C80E22EC05F0000EF8
:1003680022EC05F0100E22EC05F0400E22EC05F010
:10037800810E22EC05F07F0E22EC05F0A10E22EC96
:1003880005F0A60E22EC05F0A80E22EC05F03F0EB3
:1003980022EC05F0A40E22EC05F0D30E22EC05F0B9
:1003A800000E22EC05F0D50E22EC05F0F00E22EC42
:1003B80005F0D90E22EC05F0220E22EC05F0DA0E3B
:1003C80022EC05F0120E22EC05F0DB0E22EC05F013
:1003D800200E22EC05F08D0E22EC05F0140E22EC16
:1003E80005F0AF0E22EC05F012004550010D290E64
:1003F800F324D96E000EF420DA6E000EDF6E3D0194
:10040800F9A715D04550010D290EF324D96E000E19
:10041800F420DA6EDF8201D80AD00500FA6E505057
:10042800FD6E5150FE6EF850FF6EFA5012003D01FD
:10043800F9A315D04550010D290EF324D96E000EED
:10044800F420DA6EDF8401D80AD00500FA6E4E5027
:10045800FD6E4F50FE6EF850FF6EFA501200455078
:10046800010D290EF324D96E000EF420DA6EDF5048
:10047800D8B40CD001D812000500FA6E4C50FD6EAD
:100488004D50FE6EF850FF6EFA5012006DEC04F0FD
:10049800120039019397F20E016E030E026E33ECCF
:1004A80005F039019399200E016E080E026E2CECAE
:1004B80005F0000E3D01EC6F000EED6F000EEE6FC3
:1004C800000EEF6F000EF06F000EF16FB00EF26FBE
:1004D800800EF36F000EF46F190EF56F000EF66FB5
:1004E800000EF76F000EF86F000EF96F000EFA6F2E
:1004F800B00E016E0A0E026E41EC05F0AE0E016EF2
:100508000A0E026E3AEC05F0A40E016E0A0E026E97
:1005180048EC05F0000E426E000E476E000E466E67
:10052800080E586E000E456E000E446E000E436EA7
:100538003901938712001E0EF66E000EF76E000E3C
:10054800F86E01EE80F010EE3AF209006F00D7FF66
:10055800EEFFE550E150F9E1E250F7E1AA0EF66E40
:100568000A0EF76E000EF86E00EE59F010EE04F069
:1005780009006F00D7FFEEFFE550E150F9E100EE0A
:1005880080F011EE00F0EE6AE550E150FCE1E25037
:10059800FAE100EE60F0200EEE6AE806FDE100EEFA
:1005A80029F0230EEE6AE806FDE1080ED56E000E6E
:1005B800D66E000ED76E000EF86E0001C6EF04F07E
:1005C8000F6EB00E0F240D6E0E6A000E0E220D5027
:1005D80022EC05F0000E116E000E106E000E116E6A
:1005E800000E106E11BE06D011500FE1040E105C03
:1005F800D8B00BD0600E0A6E000E0B6E200E0C6E7B
:10060800D6EC04F0104A112AEDD7480E0A6E000EF7
:100618000B6E040E0C6ED6EC04F01200000E3F01B7
:10062800BA6F000EBB6F000EBC6FC269C369E70EDC
:10063800C46F670E3A01606F50694069000E816FA0
:10064800000E516F000E416F000E616F000E426F79
:10065800000E526F180E626F436953696369140E76
:10066800E46F210E136F220E146F170EE76F130E2F
:10067800E36F1200B00E07240E6E000E08200F6EF6
:100688000E5022EC05F0020E0926000E0A220F0E6B
:100698000914106E116A600024F00BF0600028F055
:1006A8000CF0040E0D6E0C340C320B320D2EFBD7F1
:1006B800100E0B24126E000E0C20136E125022EC3A
:1006C80005F0105022EC05F01200076E600010F0E3
:1006D80008F0600014F009F058EC04F00750072403
:1006E8003D016E6FFFEC04F006283D016C6F738BC3
:1006F800F2EC04F0035080EC04F00BD0600023F01F
:10070800D9FF600027F0DAFFDF5080EC04F0084AD8
:10071800092A06060628D8A4F1D7E5EC04F0120049
:10072800600004F005F0600008F006F002D0054A09
:10073800062A600017F0F6FF60001BF0F7FF0800BC
:10074800F5500009D8A4F3D7600004F003F0600066
:1007580008F004F0031E041E034A042A055003246B
:10076800016E06500420026E1200390193B9A3A944
:100778000CD001D811000500FA6E5250FD6E53508E
:10078800FE6EF850FF6EFA50120093A71100A3A74F
:10079800110001D811000500FA6E5450FD6E555035
:1007A800FE6EF850FF6EFA501200000E136E000E27
:1007B800126E000E136E000E126E13BE06D013508A
:1007C80010E1080E125CD8B012001250E4EC02F0EE
:1007D800000E22EC05F0100E22EC05F0124A132A46
:1007E800ECD71200600E3F01B96FD80EB76FF00E4C
:1007F800B66FB6516F00DCFE01F0026A600004F0CB
:1008080002F0016A0110566E0250576E3901A39F1B
:10081800900E3F01B86F1200080E586013D0465072
:10082800010D390EF324D96E000EF420DA6EDF5074
:100838003D01EA6F462A070E466402D0000E466E56
:10084800582A1200390193991200056E58EC04F0E9
:10085800055005243D016E6FFFEC04F0020E3D01CA
:100868006C6F738BF2EC04F0035080EC04F00450CE
:1008780080EC04F0E5EC04F01200015003026F0074
:10088800CCFF05F06F00D0FF06F001500402F350D2
:10089800062602500302F3500626600014F001F009
:1008A800600018F002F012003D0173AF03D0415010
:1008B800D8B41200000E416E800E746F200E756F52
:1008C800060E7B6F840E736F000E796F000E766FC5
:1008D80012004550010D310EF324D96E000EF4209C
:1008E800DA6E6F00A3F7DFFF452A070E456402D0D2
:1008F800000E456E432A1200016E02684150D8A4CA
:10090800120007D03D0178AB04D0600007F06BFD02
:100918001200022EF7D7010E416E1200000E3901A7
:10092800C06F000EC16F000EC26F000EC36F000EC5
:10093800C46F000EC56F000EC66F000EC76F1200A1
:100948004FEC05F092EC04F012EC03F00CEC05F01F
:10095800B5EC04F0F6EC03F04DEC02F058EC04F0C2
:100968001200030E3F01AE6F000EAD6F000EAF6FA9
:10097800090EAB6F000EAA6F3901A495800E3F01D6
:10098800AC6F1200A4EC04F0A4EC01F0D9EC03F075
:100998000A0E146EF30E156E7F0E166E020E2CECF8
:1009A80001F0FFD7400E036E600028F004F06000ED
:1009B8002CF005F0600030F006F03C0E69EC03F016
:1009C800120001684150D8A4120003D03D0179B546
:1009D8001200012EFBD7010E416E12000168415032
:1009E800D8A4120003D03D0173AB1200012EFBD72F
:1009F800010E416E120001684150D8A4120003D0C4
:100A08003D0177BF1200012EFBD7010E416E120087
:100A1800700E3901D96F000EDB6F000EDD6F020E0C
:100A2800DF6F000EDE6F1200066E400E036E600070
:100A380018F004F03C0E29EC04F01200066E800E4B
:100A4800036E600018F004F03C0E29EC04F012006C
:100A5800600004F052F0600008F053F012006000EB
:100A680004F054F0600008F055F01200600004F043
:100A78004EF0600008F04FF01200600004F050F0F3
:100A8800600008F051F01200600004F04CF06000C3
:100A980008F04DF012003F01D29B12006DEC04F0FB
:0A0AA80012000608205F1200120081
:107EB20000000000000000005F0000000700070053
:107EC200123F123F1204256B251046361C363136FE
:107ED20049592650000003000000003E4141414143
:107EE2003E00000A041F040A08083E080800403049
:107EF20000000008080800000040000040301C0696
:107F0200017F615D437F04427F40006251494946DF
:107F12006041494D3B0F08087E0820474525193C22
:107F22004A4949600171190D0736494949360649DE
:107F320049493E00001400000040340000000814CB
:107F42002200001414140000221408000201510936
:107F5200062E415D551E7E0909097E417F4949363B
:107F62003E41414141417F41413E7F494949417F33
:107F7200090909013E414149797F0808087F00004B
:107F82007F0000604041413F7F081C36637F4040D4
:107F920040407F060C067F7F061C307F7F414141B7
:107FA2007F017F0909063E4151215E7F0919294659
:107FB200464949493101017F01013F4040403F7F2D
:107FC20060380E033F4038403F63361C3663030E71
:107FD200780E0341715D474100007F414101061C5B
:107FE20030400402010204404040404000000102CF
:0E7FF2000048454C4C4F20574F524C44000065
:020000040020DA
:10000000FF0FFF0FFF0FFF0FFF0FFF0FFF0FFF0F80
:020000040030CA
:0A000000FCFFF7FF9FFFFFFFFFFF6B
:00000001FF
