:100000000C945A000C946F000C946F000C946F00C9
:100010000C946F000C946F000C946F000C946F00A4
:100020000C946F000C946F000C9471000C946F0092
:100030000C946F000C946F000C946F000C946F0084
:100040000C946F000C946F000C946F000C946F0074
:100050000C946F000C946F000C946F000C946F0064
:100060000C946F000C946F000C946F000C946F0054
:100070000C946F000C946F000C946F000C946F0044
:100080000C946F000C946F000C946F000C946F0034
:100090000C946F000C946F000C946F000C946F0024
:1000A0000C946F000C946F000C946F000C946F0014
:1000B0000C946F0011241FBECFEFD8E0DEBFCDBF80
:1000C00011E0A0E0B1E0ECEAF1E002C005900D9291
:1000D000A031B107D9F70E949E000C94D4000C9473
:1000E00000001F920F920FB60F9211242F933F938F
:1000F0004F935F936F937F938F939F93AF93BF9330
:10010000CF93EF93FF9380918600C09187000E9468
:10011000BD008C2F0E94BD00FF91EF91CF91BF9148
:10012000AF919F918F917F916F915F914F913F918F
:100130002F910F900FBE0F901F90189587E690E0BB
:100140000E94B20080E091E00E94C500E1E8F0E08A
:100150008081806C8083EFE6F0E080818160808325
:100160007894FECF9093C5008093C40088E180937B
:10017000C10086E08093C2000895E0ECF0E0908139
:1001800095FFFDCF8093C6000895CF93DF93EC01D8
:100190008881882331F021960E94BD0089918111C8
:0C01A000FBCFDF91CF910895F894FFCFC2
:1001AC004652455155454E4359204D4554455200F4
:00000001FF
