:040000000DEF00F010
:04000800CEEF22F025
:10001800C00088EF1FF0640E0001946F000E956F0A
:10002800CAEF06F0250EA919D8B40DD0600083F1E7
:10003800D9FF600087F1DAFF6000A7F2DFFF604BAD
:10004800612BCAEF06F0000EA36F000EA26F000E20
:100058009B6F000E9A6F60008BF1F6FF60008FF1C6
:10006800F7FFF86A0800F55069EC2DF0D8A03ED0EB
:10007800000E0001A36F000EA26F600088F246F028
:1000880060008CF247F0000E496E0A0E486E49EC8B
:100098002CF0600018F1A2F060001CF1A3F0D00E63
:1000A8000001876FFF0E886F60008BF1F6FF60001C
:1000B8008FF1F7FFF86A0800F550896F8A6B87514E
:1000C800892788518A238951A2278A51A323624B01
:1000D800632B60008BF1F6FF60008FF1F7FFF86A81
:1000E8000800F55069EC2DF0D8B0C7D760008BF147
:1000F800F6FF60008FF1F7FFF86A0800F5502E0A46
:10010800D8A438D000019B8D624B632B000EA86FDA
:10011800000EA76F21D060009CF246F06000A0F2AC
:1001280047F0000E496E0A0E486E49EC2CF060004C
:100138008BF1F6FF60008FF1F7FFF86A0800F550C1
:100148004626000E4722D00E46240001A76FFF0E58
:100158004720A86F624B632B60008BF1F6FF6000AD
:100168008FF1F7FFF86A0800F55069EC2DF0D8A078
:10017800B4D0D1D7000E0001A86F000EA76F9B89DD
:10018800ACD09A89AAD09B85CED0600053F2D9FF13
:10019800600057F2DAFF6F0078FF90F06F0074FF8D
:1001A80091F0020E9427000E952390519111D8A436
:1001B80004D0C30E906FFF0E916F000E936F000E68
:1001C800926F03D00001924B932B92519025876F29
:1001D80093519121886F60001FF2F6FF600023F2AF
:1001E800F7FF000EF86E0F0EF76403D00800F55005
:1001F80007D06F00DBFFE9FF6F00DFFFEAFFEF507A
:100208000009D8A4DFD70001A751A811D8B40CD091
:100218009251A75D9351A859D8B006D060009CF2BE
:1002280092F06000A0F293F0A251925DA35193590D
:10023800D8B005D09251A25F9351A35B0FD0000EA6
:10024800A36F000EA26F0AD0600083F1D9FF60008F
:1002580087F1DAFF200EDF6E604B612BA207D8A072
:10026800A307A229F1E1A329D8B422D0EDD76000D1
:1002780043F2F6FF600047F2F7FF000EF86E6000E9
:1002880083F1D9FF600087F1DAFF0F0EF76403D01E
:100298000800F55007D06F00DBFFE9FF6F00DFFFB4
:1002A800EAFFEF50DF6E0001904B912B604B612B02
:1002B8009207D8A093079229DAE19329D8B4CAEF14
:1002C80006F0D5D7A90E906F000E916F000E936FB0
:1002D800010E926F98D79A8D26D060008BF1F6FFA9
:1002E80060008FF1F7FF0001624B632BF86A08008A
:1002F8006F00D4FFA9F0A951000AD8B4DBEF06F0CB
:10030800640AD8B410D0020AD8B43DD70F0AD8B4BA
:100318000AD0050AD8B435D71F0AD8B436D7060A82
:10032800D8B4D9D7CFD7070E9B15D8B4B7D39BA9C4
:1003380004D0000EA86F060EA76F600053F2D9FF15
:10034800600057F2DAFF6F0078FFA4F06F0078FFC3
:10035800A5F06F0074FFA6F0030E9427000E9523F6
:10036800A6AF17D0600090F244F0600094F245F018
:10037800600098F246F0A2EC2CF0600010F1A4F0B6
:10038800600014F1A5F0600018F1A6F0030E00015A
:100398009A13000E9D6F000E9C6FA451A511A61113
:1003A800D8B4A4D0820E876FFF0E886F600090F2D9
:1003B80089F0600094F28AF0600098F28BF0600097
:1003C8009CF28CF0100E05D0D8908C338B338A3386
:1003D8008933E82EF9D7895187259C6F000E88212B
:1003E8009D6F9C07D8A09D07600070F246F06000E2
:1003F80074F247F0000E496E030E486E49EC2CF07B
:10040800600018F19CF060001CF19DF0600070F233
:100418003EF0600074F23FF0000E416E0A0E406E2E
:1004280032EC24F06000F8F09CF06000FCF09DF0E5
:1004380000019DAF03D09C07D8A09D079C510008E0
:10044800E4EC06F0600058F096F060005CF097F07D
:10045800600060F098F0600058F207F060005CF20D
:1004680008F0600060F209F0600090F20AF06000A5
:1004780094F20BF0600098F20CF081EC1AF0600036
:100488001CF096F0600020F097F0600024F098F0DF
:10049800600058F238F060005CF239F0600060F2F9
:1004A8003AF0000E3B6E800E3C6E3F0E3D6E80ECC7
:1004B80022F0D8B005D000019C07D8A09D0716D01F
:1004C800600058F238F060005CF239F0600060F2C9
:1004D8003AF0000E3B6E200E3C6E410E3D6E80ECF5
:1004E80022F0D8A003D000019C4B9D2B0001A8BF8F
:1004F80006D0A85124E10D0EA75DD8B020D0600029
:1005080090F24CF0600094F24DF0600098F24EF0DA
:10051800A75121EC0FF0600058F04FF060005CF03C
:1005280050F0600060F051F0B6EC12F0600030F16D
:10053800A4F0600034F1A5F0600038F1A6F00001E5
:100548009DBF06D09D5123E10A0E9C5DD8B01FD0F7
:10055800A451A511A611D8B469D0600090F21DF07D
:10056800600094F21EF0600098F21FF08AEC1BF015
:100578001D501E101F102010D8A458D000019DBF78
:1005880055D09D5104E1020E9C5DD8A04FD060006B
:1005980058F238F060005CF239F0600060F23AF02E
:1005A800700E3B6E890E3C6E400E3D6E80EC22F064
:1005B800D8B003D00001F70E02D00001F80E9C2736
:1005C800FF0E9D239C51E4EC06F0600058F096F075
:1005D80060005CF097F0600060F098F0600090F2C6
:1005E80038F0600094F239F0600098F23AF0600058
:1005F80058F23BF060005CF23CF0600060F23DF0C5
:100608004EEC16F06000E0F09EF06000E4F09FF021
:100618006000E8F0A0F06000ECF0A1F0000E00012E
:10062800A46F000EA56F000EA66F47D0600090F271
:100638001DF0600094F21EF0600098F21FF08AEC42
:100648001BF0600074F09EF0600078F09FF060008E
:100658007CF0A0F0600080F0A1F0600090F207F05C
:10066800600094F208F0600098F209F0600078F2F7
:1006780040F060007CF241F0600080F242F06000DF
:1006880084F243F062EC27F0600000F10AF06000A9
:1006980004F10BF0600008F10CF038EC29F0600070
:1006A8001CF0A4F0600020F0A5F0600024F0A6F093
:1006B800000E00019D6F000E9C6F010EA96F0A0EBF
:1006C800A919D8B41BD0A951040D410EF324F66E14
:1006D800FD0EF420F76EF86A000EF8220900F550B6
:1006E8009E5D0900F5509F590900F550A059090071
:1006F800F550A159D8A002D0A92BE1D76000A4F2E7
:1007080087F0886B87BF8807A7518727A851882358
:100718009C5187279D5188238751A25F8851A35BED
:10072800A751A811D8B403D0A207D8A0A307030ED5
:100738009A15876F000E9B15886F87518811D8B45A
:100748000ED00AD0600083F1D9FF600087F1DAFF8C
:10075800200EDF6E604B612BA207D8A0A307A3BFB2
:1007680005D0A351EFE1A205D8B0ECD7030E9A1536
:10077800876F000E9B15886F87518811D8B46BD08E
:10078800600083F1D9FF600087F1DAFF2D0E60D099
:10079800600078F238F060007CF239F0600080F296
:1007A8003AF0600084F23BF0A951040D410EF324A5
:1007B800F66EFD0EF420F76EF86A000EF8220900B6
:1007C8006F00D4FF3CF009006F00D4FF3DF0090032
:1007D8006F00D4FF3EF00A006F00D4FF3FF0EDEC4D
:1007E80023F06000E0F096F06000E4F097F060001D
:1007F800E8F098F06000ECF099F0600058F245F0ED
:1008080060005CF246F0600060F247F0600064F25D
:1008180048F00A0E496E000E4A6E000E4B6E000E2E
:100828004C6E89EC26F0600014F196F0600018F127
:1008380097F060001CF198F0600020F199F0000139
:100848009651300F600083F1D9FF600087F1DAFF1D
:10085800DF6E604B612BA907A929D8B40ED098D7B1
:10086800600083F1D9FF600087F1DAFF300EDF6E98
:10087800604B612B9C07D8A09D079DBF05D09D515B
:10088800EFE19C05D8B0ECD7A8BF09D0A85104E186
:10089800090EA75DD8A003D0080EA96F03D0600089
:1008A8009CF2A9F0A951A75F000EA9BFFF0EA85B93
:1008B800A951D8B40AD0600083F1D9FF600087F14C
:1008C800DAFF2E0EDF6E604B612BA951E4EC06F0C7
:1008D800600058F08DF060005CF08EF0600060F011
:1008E8008FF0600090F20AF0600094F20BF0600064
:1008F80098F20CF0600034F207F0600038F208F06B
:1009080060003CF209F081EC1AF060001CF01DF068
:10091800600020F01EF0600024F01FF08AEC1BF04D
:10092800600074F09EF0600078F09FF060007CF04A
:10093800A0F0600080F0A1F099D0600078F238F063
:1009480060007CF239F0600080F23AF0600084F2D6
:100958003BF00001A951040D410EF324F66EFD0E83
:10096800F420F76EF86A000EF82209006F00D4FF31
:100978003CF009006F00D4FF3DF009006F00D4FF80
:100988003EF00A006F00D4FF3FF0EDEC23F060006A
:10099800E0F096F06000E4F097F06000E8F098F07E
:1009A8006000ECF099F0600058F245F060005CF2ED
:1009B80046F0600060F247F0600064F248F00A0E0A
:1009C800496E000E4A6E000E4B6E000E4C6E89EC9E
:1009D80026F0600014F196F0600018F197F06000BE
:1009E8001CF198F0600020F199F000019651300F49
:1009F800600083F1D9FF600087F1DAFFDF6E604B9A
:100A0800612B600078F245F060007CF246F06000EF
:100A180080F247F0600084F248F0A951040D410EBD
:100A2800F324F66EFD0EF420F76EF86A000EF82235
:100A380009006F00D4FF49F009006F00D4FF4AF0A5
:100A480009006F00D4FF4BF00A006F00D4FF4CF090
:100A580089EC26F0600014F19EF0600018F19FF018
:100A680060001CF1A0F0600020F1A1F00001A907CE
:100A7800A929D8B40ED061D7600083F1D9FF6000EE
:100A880087F1DAFF300EDF6E604B612BA707D8A025
:100A9800A807A751A811D8B479D1EED79ABD38D0F4
:100AA8009AA914D0600053F2D9FF600057F2DAFF18
:100AB8006F0078FF9EF06F0078FF9FF06F0078FF5F
:100AC800A0F06F0078FFA1F0040E12D0600053F27E
:100AD800D9FF600057F2DAFF6F0078FF9EF06F00D1
:100AE80074FF9FF0000E9FBFFF0EA06FA16F020E54
:100AF8009427000E9523A1AF39D0030E9A13A11F96
:100B0800A01F9F1F9E6D000E9F23A023A1232ED000
:100B18009AA914D0600053F2D9FF600057F2DAFFA7
:100B28006F0078FF9EF06F0078FF9FF06F0078FFEE
:100B3800A0F06F0078FFA1F0040E15D0600053F20A
:100B4800D9FF600057F2DAFF6F0078FF87F06F0077
:100B580074FF88F060001CF29EF0600020F29FF0A5
:100B6800A06BA16B020E9427000E9523A751A81124
:100B7800D8A408D09E519F11A011A111D8A402D0C9
:100B8800A74BA82B010EA96F0A0EA919D8B41BD020
:100B9800A951040D410EF324F66EFD0EF420F76EF4
:100BA800F86A000EF8220900F5509E5D0900F5501C
:100BB8009F590900F550A0590900F550A159D8A02E
:100BC80002D0A92BE1D7800EA9BF7F0E876FA7514E
:100BD800A95DA851800A8759D8B004D060009CF25A
:100BE800A9F010D0A851800A876FA951A75D800E7F
:100BF800A9BF7F0E8759D8B005D0A951A76FA86B98
:100C0800A7BFA807A251A311D8B40DD0030E9A15F7
:100C1800876F000E9B15886F87518811D8B403D051
:100C2800A207D8A0A3079BAD13D0A251A75DA851D6
:100C3800800A876FA351800A8759D8B005D0A75179
:100C4800A25FA851A35B04D0000EA36F000EA26F91
:100C5800800EA9BF7F0E876FA251A95DA351800A9C
:100C68008759D8B007D0A951A25F000EA9BFFF0EBF
:100C7800A35B04D0000EA36F000EA26FA251A311B4
:100C8800D8B411D0600083F1D9FF600087F1DAFF92
:100C9800200EDF6E604B612BA207D8A0A307A251DC
:100CA800A311D8A4EFD7030E9A15876F000E9B15D2
:100CB800886F87518811D8B461D0600083F1D9FF5B
:100CC800600087F1DAFF2D0EDF6E56D060009CF2CF
:100CD80087F06000A0F288F0D89087378837D890DE
:100CE80087378837410E8725F66EFD0E8821F76E07
:100CF800F86A000EF82209006F00D4FF3CF00900E2
:100D08006F00D4FF3DF009006F00D4FF3EF00A00E9
:100D18006F00D4FF3FF0600078F238F060007CF29A
:100D280039F0600080F23AF0600084F23BF0EDECBC
:100D380023F06000E0F045F06000E4F046F0600069
:100D4800E8F047F06000ECF048F00A0E496E000E3B
:100D58004A6E000E4B6E000E4C6E89EC26F0455024
:100D6800300F0001A96F600083F1D9FF600087F19F
:100D7800DAFF6000A7F2DFFF604B612BA707D8A05E
:100D8800A807A729A3E1A829D8A4A0D760008BF1B8
:100D9800F6FF60008FF1F7FF624B632BF86A0800DB
:100DA8006F00D4FFA9F0A951D8A416EF00F0600095
:100DB80083F1D9FF600087F1DAFF000EDF6E1200C1
:100DC8001C6E1CAE37D11C6C1C50800A120FD8A0A8
:100DD800B0D0000E496E030E486E000E416E0A0E2A
:100DE800406E000E3B6E640E3A6E1C50386E396AC7
:100DF80038BE3906A4EC25F06000E0F03EF0600053
:100E0800E4F03FF032EC24F0090E3E24466E000E6A
:100E18003F20476E49EC2CF0900E4624F66EFD0EEE
:100E28004720F76EF86A000EF82209006F00D4FF19
:100E38000AF009006F00D4FF0BF00A006F00D4FF1E
:100E48000CF0000E416E640E406E1C503E6E3F6A00
:100E58003EBE3F0632EC24F0120E3E24466E000ED3
:100E68003F20476E000E496E030E486E49EC2CF089
:100E7800900E4624F66EFD0E4720F76EF86A000EB7
:100E8800F82209006F00D4FF07F009006F00D4FFB3
:100E980008F00A006F00D4FF09F081EC1AF0600036
:100EA8001CF019F0600020F01AF0600024F01BF02C
:100EB800600064F007F0600068F008F060006CF013
:100EC80009F0000E496E030E486E000E3B6E0A0EC6
:100ED8003A6E1C50386E396A38BE3906A4EC25F0D3
:100EE8006000E0F046F06000E4F047F049EC2CF0D8
:100EF800900E4624F66EFD0E4720F76EF86A000E37
:100F0800F82209006F00D4FF0AF009006F00D4FF2F
:100F18000BF00A006F00D4FF0CF081EC1AF06000AF
:100F28001CF016F0600020F017F0600024F018F0B4
:100F380012001C50800A750FD8A064D0000E416EB4
:100F48000A0E406E1C503E6E3F6A3EBE3F0632ECB3
:100F580024F0090E3E24466E000E3F20476E000E18
:100F6800496E030E486E49EC2CF0900E4624F66E3E
:100F7800FD0E4720F76EF86A000EF82209006F0090
:100F8800D4FF07F009006F00D4FF08F00A006F00D3
:100F9800D4FF09F0000E496E030E486E000E3B6E3A
:100FA8000A0E3A6E1C50386E396A38BE3906A4ECFF
:100FB80025F06000E0F046F06000E4F047F049EC0E
:100FC8002CF0900E4624F66EFD0E4720F76EF86A58
:100FD800000EF82209006F00D4FF0AF009006F0024
:100FE800D4FF0BF00A006F00D4FF0CF081EC1AF06C
:100FF80060001CF016F0600020F017F0600024F08C
:1010080018F012001C50030D900EF324F66EFD0E1E
:10101800F420F76EF86A000EF82209006F00D4FF7A
:1010280016F009006F00D4FF17F00A006F00D4FF14
:1010380018F012001C50800A120FD8A0B0D0000E71
:10104800496E030E486E000E416E0A0E406E000E89
:101058003B6E640E3A6E1C50386E396A38BE3906DB
:10106800A4EC25F06000E0F03EF06000E4F03FF012
:1010780032EC24F0090E3E24466E000E3F20476EE7
:1010880049EC2CF0690E4624F66EFD0E4720F76EEB
:10109800F86A000EF82209006F00D4FF0AF0090070
:1010A8006F00D4FF0BF00A006F00D4FF0CF0000EA5
:1010B800416E640E406E1C503E6E3F6A3EBE3F0657
:1010C80032EC24F0120E3E24466E000E3F20476E8E
:1010D800000E496E030E486E49EC2CF0690E46244A
:1010E800F66EFD0E4720F76EF86A000EF82209002A
:1010F8006F00D4FF07F009006F00D4FF08F00A0062
:101108006F00D4FF09F081EC1AF060001CF019F0B0
:10111800600020F01AF0600024F01BF0600064F01A
:1011280007F0600068F008F060006CF009F0000E4D
:10113800496E030E486E000E3B6E0A0E3A6E1C5046
:10114800386E396A38BE3906A4EC25F06000E0F044
:1011580046F06000E4F047F049EC2CF0690E4624B4
:10116800F66EFD0E4720F76EF86A000EF8220900A9
:101178006F00D4FF0AF009006F00D4FF0BF00A00DB
:101188006F00D4FF0CF081EC1AF060001CF016F030
:10119800600020F017F0600024F018F012001C50D6
:1011A800800A750FD8A064D0000E416E0A0E406EFA
:1011B8001C503E6E3F6A3EBE3F0632EC24F0090EDC
:1011C8003E24466E000E3F20476E000E496E030E09
:1011D800486E49EC2CF0690E4624F66EFD0E472049
:1011E800F76EF86A000EF82209006F00D4FF07F0C6
:1011F80009006F00D4FF08F00A006F00D4FF09F05F
:10120800000E496E030E486E000E3B6E0A0E3A6ED3
:101218001C50386E396A38BE3906A4EC25F06000D7
:10122800E0F046F06000E4F047F049EC2CF0690E7D
:101238004624F66EFD0E4720F76EF86A000EF82277
:1012480009006F00D4FF0AF009006F00D4FF0BF00B
:101258000A006F00D4FF0CF081EC1AF060001CF05B
:1012680016F0600020F017F0600024F018F012006B
:101278001C50030D690EF324F66EFD0EF420F76E74
:10128800F86A000EF82209006F00D4FF16F0090072
:101298006F00D4FF17F00A006F00D4FF18F0120097
:1012A8006000B8F64FF06000BCF650F06000C0F681
:1012B80051F06000B8F440F06000BCF441F032EC4A
:1012C8002CF0600000F144F0600004F145F060008B
:1012D80008F146F0A2EC2CF0600010F14CF0600030
:1012E80014F14DF0600018F14EF0B6EC12F0600009
:1012F80030F107F0600034F108F0600038F109F0CF
:10130800CD0E0A6ECC0E0B6E3C0E0C6E81EC1AF0F4
:1013180060001CF0CBF0600020F0CCF0600024F0FE
:10132800CDF06000C4F64FF06000C8F650F06000E1
:10133800CCF651F06000C0F440F06000C4F441F015
:1013480032EC2CF0600000F144F0600004F145F04C
:10135800600008F146F0A2EC2CF0600010F14CF0AF
:10136800600014F14DF0600018F14EF0B6EC12F088
:10137800600030F107F0600034F108F0600038F1E7
:1013880009F0CD0E0A6ECC0E0B6E3C0E0C6E81EC85
:101398001AF060001CF0CEF0600020F0CFF0600082
:1013A80024F0D0F06000C8F440F06000CCF441F0C4
:1013B80032EC2CF0600000F107F0600004F108F056
:1013C800600008F109F09D0E0A6E800E0B6E3C0E4F
:1013D8000C6E81EC1AF060001CF0C2F0600020F086
:1013E800C3F0600024F0C4F0170E0A6EB70E0B6E3F
:1013F8003D0E0C6E6000D0F440F06000D4F441F073
:1014080032EC2CF0600000F107F0600004F108F005
:10141800600008F109F081EC1AF060001CF01DF082
:10142800600020F01EF0600024F01FF08AEC1BF032
:10143800600074F05FF1600078F060F136C1D3F0BD
:1014480037C1D4F038C1D1F039C1D2F060002CF3E3
:1014580038F0600030F339F0600034F33AF0000EF1
:101468003B6E800E3C6E3F0E3D6E80EC22F0D8B095
:1014780007D0000E0001CB6F000ECC6F000ECD6FB1
:10148800600038F338F060003CF339F0600040F356
:101498003AF0000E3B6E400E3C6E3F0E3D6E80EC07
:1014A80022F0D8B007D0000E0001CE6F000ECF6F2B
:1014B800000ED06F600038F307F060003CF308F0CE
:1014C800600040F309F0600008F30AF060000CF3D4
:1014D8000BF0600010F30CF081EC1AF060001CF0C7
:1014E8005AF1600020F05BF1600024F05CF16000CC
:1014F8002CF307F0600030F308F0600034F309F0D3
:10150800600008F30AF060000CF30BF0600010F3C1
:101518000CF081EC1AF060001CF0C5F0600020F0BF
:10152800C6F0600024F0C7F0600014F338F06000E3
:1015380018F339F060001CF33AF0600068F53BF0EE
:1015480060006CF53CF0600070F53DF080EC22F036
:10155800D8A029D0600068F544F060006CF545F02B
:10156800600070F546F0A2EC2CF0600010F14CF031
:10157800600014F14DF0600018F14EF0600014F3B3
:101588004FF0600018F350F060001CF351F0B6EC17
:1015980012F0600030F12CF0600034F12DF06000A2
:1015A80038F12EF006D0000E2C6E000E2D6E000EB7
:1015B8002E6E790E0001606F010E616FEF0E626F83
:1015C800FF0E636F60007CF564F0600080F565F0E5
:1015D8000FEC00F0CB0E0001606F020E616FD80EA9
:1015E800626FFF0E636F600014F364F0600018F31D
:1015F80065F060001CF366F00FEC00F0D40E0001FB
:10160800606F020E616FD80E626FFF0E636F60002D
:10161800B0F064F06000B4F065F06000B8F066F017
:101628000FEC00F0600020F338F0600024F339F08C
:10163800600028F33AF0000E3B6E7A0E3C6E440EC2
:101648003D6E80EC22F0D8A026D06F0E0001606FAE
:10165800010E616F900E626FFF0E636F600020F3E2
:1016680040F0600024F341F0600028F342F0000EDF
:10167800436E7A0E446E440E456E0CEC1CF060000E
:1016880000F164F0600004F165F0600008F166F0B4
:101698000FEC00F012006F0E0001606F010E616F19
:1016A800BB0E626FFF0E636F600020F364F0600092
:1016B80024F365F0600028F366F00FEC00F01200E8
:1016C800D8EC2AF03F01BA8138EC2EF03F01B89FE0
:1016D800640E0101006F000E0001EB6F000EEA6F4F
:1016E800000EE86F000E01016C6F000E0001E76F3D
:1016F800000EE96F000EE66F000EE56F000E0101A7
:101708006B6F000E0001D96F000ED66F000ED56FFB
:10171800600054F338F0600058F339F0E8EC2BF02F
:101728003F017A9F44EC2EF024EC2EF0890E076ED0
:10173800010E086E3CEC21F0010E396EA80E386ED1
:1017480001EC2CF03F017E8F28EC1FF067EC14F0C1
:1017580030EC25F089EC28F026EC18F0000E396EF4
:10176800000E386E01EC2CF03F017E9F890E076E4B
:10177800010E086E3CEC21F03F01B88FD28F35EC9A
:101788002EF03F01CA9304000001EB05D8A4BED097
:10179800F7EC29F0BBEC2AF0010E0001D86F000E1F
:1017A8000301906F000E8F6FCB0E0001606F020E69
:1017B800616FD80E626FFF0E636F000E646F000ECC
:1017C800656F000E666F0FEC00F0ECEC1DF09AD020
:1017D80004000001D851D8B427D003018F5197ECE9
:1017E80027F0030E03018F27000E9023050E030137
:1017F8008E6F0F0E8D6FF10EE82EFED78D2FFCD752
:101808008E2FFAD7030190BF0FD0905104E1190E23
:101818008F5DD8A009D0000E0001D86FE50E076EC5
:10182800010E086E3CEC21F030EC25F026EC18F0A7
:10183800F2EC19F00001EB05D8A468D081EC2BF08C
:1018480026EC18F08AEC17F00001EB05D8A45ED05E
:101858009BEC2BF0ABEC2DF059EC2DF00001F05186
:10186800D8B409D0DC2BDC514BEC2BF051EC26F032
:10187800000E0001F06FE705D8A444D0EB05D8A40A
:1018880041D0CFEC2BF0D2EC29F0000E0001D96F3B
:10189800000EE36F010ED66FF30ED56F600054F3A0
:1018A80038F0600058F339F0E8EC2BF03F017A8FFC
:1018B80021D004000001F051D8B402D0000EF06F1E
:1018C80030EC25F09BEC2BF0F2EC19F00001EB0565
:1018D800D8A41CD081EC2BF0DFEC2CF059EC2DF0C7
:1018E8008AEC17F00001EB05D8A410D0B6EC28F06C
:1018F800ABEC2DF00001E705D8A408D0EB05D8A47F
:1019080005D0D7D70001EB05D8B462D7EB51D8A4DE
:1019180071D079EC2DF0000E396E000E386E01ECA6
:101928002CF03F017E9F62D004008AEC17F0000182
:10193800EB51D8A45FD079EC1DF030EC25F026EC03
:1019480018F0ABEC2DF0DFEC2CF059EC2DF0000189
:10195800EA05D8A44BD0B5EC24F0000E0001D96FED
:10196800000EE36F010ED66FF30ED56F600054F3CF
:1019780038F0600058F339F0E8EC2BF03F017A8F2B
:1019880021D0040081EC2BF0F2EC19F00001EB51AE
:10199800D8A41CD08AEC17F00001EB51D8A416D0BB
:1019A800B6EC28F07FEC2AF0DFEC2CF00001F051C7
:1019B800D8B402D0000EF06F30EC25F0ABEC2DF06F
:1019C80059EC2DF00001EA05D8B4DBD7890E076E73
:1019D800010E086E3CEC21F0000E396E000E386ED8
:1019E80001EC2CF03F017E9F79EC2DF00001EB51CA
:1019F800D8B49AD7020EEB19D8A426D0F3EC24F069
:101A0800000E0001D96F000EE36F010ED66FF30EC2
:101A1800D56F600054F338F0600058F339F0E8EC03
:101A28002BF03F017A8F0BD00400ABEC2DF030EC9B
:101A380025F0F2EC19F09BEC2BF0B6EC28F0020E36
:101A48000001EB19D8B4F0D7030EEB19D8A49BD634
:101A580061EC23F0FCEC27F03F01CA83EDEC16F0B3
:101A6800040022D004008AEC17F05EEC0DF00001AF
:101A7800F051D8B419D0D72B030ED76103D0EDECB1
:101A880016F00FD0020E0001D7650BD00C0ED761EF
:101A980008D094EC10F00A0E0001D76502D0000EB1
:101AA800D76F000E0001F06F030E0001EB19D8A4E8
:101AB8006AD6D8D7000E3A6E3EEC2EF00009D8B49C
:101AC80038D0000E3B6E000E3B6E2D0E3B6401D0ED
:101AD8000CD03B50010D000EF324D96E010EF420FA
:101AE800DA6E000EDF6E3B2AF0D7000E3B6E1AD07E
:101AF800E2EC28F0396E3B50010D000EF324D96E4C
:101B0800010EF420DA6E6000E7F0DFFF3B2AD00E0A
:101B1800396ECA0EE82EFED7392EFCD72E0E3B643E
:101B280001D005D03EEC2EF00009D8A4E1D7010E73
:101B38003A6E3A50D8B412006000E3F3D9FF60005F
:101B4800E7F3DAFF600007F4DFFF000120EE01F0A1
:101B5800F851D926F951DA2260000BF4DFFF20EEA4
:101B680002F0F851D926F951DA2260000FF4DFFFAC
:101B780020EE03F0F851D926F951DA22600013F467
:101B8800DFFF60005FF7D9FF600063F7DAFF6000EE
:101B980023F4DFFF010120EE01F0D751D926D851F7
:101BA800DA22600027F4DFFF600057F7D9FF6000F2
:101BB8005BF7DAFF60002BF4DFFF20EE01F0D55170
:101BC800D926D651DA2260002FF4DFFF60004FF7E4
:101BD800D9FF600053F7DAFF600033F4DFFF20EE2F
:101BE80001F0D351D926D451DA22600037F4DFFF4F
:101BF800600047F7D9FF60004BF7DAFF60003BF45D
:101C0800DFFF20EE01F0D151D926D251DA2260004F
:101C18003FF4DFFF60003FF7D9FF600043F7DAFFCA
:101C2800600043F4DFFF20EE01F0CF51D926D051F8
:101C3800DA22600047F4DFFF600037F7D9FF600061
:101C48003BF7DAFF60004BF4DFFF20EE01F0CD51E7
:101C5800D926CE51DA2260004FF4DFFF60002FF75B
:101C6800D9FF600033F7DAFF600053F4DFFF20EE9E
:101C780001F0CB51D926CC51DA22600057F4DFFFAE
:101C8800600027F7D9FF60002BF7DAFF60005BF4EC
:101C9800DFFF20EE01F0C951D926CA51DA226000CF
:101CA8005FF4DFFF60001FF7D9FF600023F7DAFF5A
:101CB800600063F4DFFF20EE01F0C751D926C85158
:101CC800DA22600067F4DFFF600017F7D9FF6000D1
:101CD8001BF7DAFF60006BF4DFFF20EE01F0C5515F
:101CE800D926C651DA2260006FF4DFFF60000FF7D3
:101CF800D9FF600013F7DAFF600073F4DFFF20EE0E
:101D080001F0C351D926C451DA22600077F4DFFF0D
:101D1800600007F7D9FF60000BF7DAFF60007BF47B
:101D2800DFFF20EE01F0C151D926C251DA2260004E
:101D38007FF4DFFF6000FFF6D9FF600003F7DAFFEA
:101D4800600083F4DFFF20EE01F0BF51D926C051B7
:101D5800DA22600087F4DFFF6000F7F6D9FF600041
:101D6800FBF6DAFF60008BF4DFFF20EE01F0BD51D7
:101D7800D926BE51DA2260008FF4DFFF6000EFF64B
:101D8800D9FF6000F3F6DAFF600093F4DFFF20EE7E
:101D980001F0BB51D926BC51DA22600097F4DFFF6D
:101DA8006000EBF3D9FF6000EFF3DAFF60009BF40B
:101DB800DFFF000120EE01F0FA51D926FB51DA22AB
:101DC80060009FF4DFFF20EE02F0FA51D926FB51A4
:101DD800DA226000A3F4DFFF20EE03F0FA51D926DF
:101DE800FB51DA226000A7F4DFFF6000E7F6D9FFB5
:101DF8006000EBF6DAFF6000ABF4DFFF010120EED4
:101E080001F0B951D926BA51DA226000AFF4DFFFE8
:101E18006000DFF6D9FF6000E3F6DAFF6000B3F494
:101E2800DFFF20EE01F0B751D926B851DA22600061
:101E3800B7F4DFFF000E3A6E12001F6E6D0E1F64BE
:101E4800C7D0000E496E030E486E000E416E0A0E92
:101E5800406E000E3B6E640E3A6E60007CF038F007
:101E6800396AA4EC25F06000E0F03EF06000E4F090
:101E78003FF032EC24F0090E3E24466E000E3F205F
:101E8800476E49EC2CF0900E4624F66EFD0E472066
:101E9800F76EF86A000EF82209006F00D4FF0AF006
:101EA80009006F00D4FF0BF00A006F00D4FF0CF09C
:101EB800000E416E640E406E60007CF03EF03F6A9A
:101EC80032EC24F0120E3E24466E000E3F20476E80
:101ED800000E496E030E486E49EC2CF0900E462415
:101EE800F66EFD0E4720F76EF86A000EF82209001C
:101EF8006F00D4FF07F009006F00D4FF08F00A0054
:101F08006F00D4FF09F081EC1AF060001CF01CF09F
:101F1800600020F01DF0600024F01EF0000E496EF5
:101F2800030E486E000E3B6E0A0E3A6E60007CF09F
:101F380038F0396AA4EC25F06000E0F046F0600063
:101F4800E4F047F049EC2CF0900E4624F66EFD0EB6
:101F58004720F76EF86A000EF82209006F00D4FFD8
:101F68000AF009006F00D4FF0BF00A006F00D4FFDD
:101F78000CF0600070F007F0600074F008F060008A
:101F880078F009F081EC1AF060001CF019F060009C
:101F980020F01AF0600024F01BF0600064F007F0F5
:101FA800600068F008F060006CF009F0000E0A6E3E
:101FB800000E0B6E3F0E0C6E81EC1AF060001CF0E8
:101FC80016F0600020F017F0600024F018F01200FE
:101FD8000A0E1F647CD0000E496E030E486E000E78
:101FE8003B6E0A0E3A6E60007CF038F0396AA4EC59
:101FF80025F06000E0F046F06000E4F047F049ECBE
:102008002CF0900E4624F66EFD0E4720F76EF86A07
:10201800000EF82209006F00D4FF0AF009006F00D3
:10202800D4FF0BF00A006F00D4FF0CF0000E416ED5
:102038000A0E406E60007CF03EF03F6A32EC24F0FD
:10204800090E3E24466E000E3F20476E000E496E74
:10205800030E486E49EC2CF0900E4624F66EFD0EE9
:102068004720F76EF86A000EF82209006F00D4FFC7
:1020780007F009006F00D4FF08F00A006F00D4FFD2
:1020880009F081EC1AF060001CF01CF0600020F0F0
:102098001DF0600024F01EF0600070F007F0600092
:1020A80074F008F0600078F009F0000E0A6E000E77
:1020B8000B6E3F0E0C6E81EC1AF060001CF016F0EF
:1020C800600020F017F0600024F018F012001F5094
:1020D800030D900EF324F66EFD0EF420F76EF86AE9
:1020E800000EF82209006F00D4FF07F009006F0006
:1020F800D4FF08F00A006F00D4FF09F0000E0A6E42
:10210800000E0B6E3F0E0C6E81EC1AF060001CF096
:1021180016F0600020F017F0600024F018F01200AC
:1021280079EC2DF0010E3B6E010E30EC22F06000D0
:10213800B0F62CF06000B4F62DF08CEC2CF06000BA
:10214800B0F0B6F06000B4F0B7F0A7EC23F0060EDC
:102158003B6E010E30EC22F06000A8F62CF0600017
:10216800ACF62DF08CEC2CF06000B0F0B6F060000E
:10217800B4F0B7F0A7EC23F00B0E3B6E010E30EC79
:1021880022F06000A0F62CF06000A4F62DF08CEC94
:102198002CF06000B0F0B6F06000B4F0B7F0A7EC37
:1021A80023F0100E3B6E010E30EC22F0600098F622
:1021B8002CF060009CF62DF08CEC2CF06000B0F058
:1021C800B6F06000B4F0B7F0A7EC23F0010E3B6E58
:1021D800020E30EC22F0600090F62CF0600094F6CD
:1021E8002DF08CEC2CF06000B0F0B6F06000B4F08C
:1021F800B7F0A7EC23F0060E3B6E020E30EC22F08F
:10220800600088F62CF060008CF62DF08CEC2CF039
:102218006000B0F0B6F06000B4F0B7F0A7EC23F0BF
:102228000B0E3B6E020E30EC22F0600080F62CF0B4
:10223800600084F62DF08CEC2CF06000B0F0B6F065
:102248006000B4F0B7F0A7EC23F0100E3B6E020E5E
:1022580030EC22F0600078F62CF060007CF62DF06F
:102268008CEC2CF06000B0F0B6F06000B4F0B7F081
:10227800A7EC23F0010E3B6E030E30EC22F0600059
:1022880070F62CF0600074F62DF08CEC2CF06000E9
:10229800B0F0B6F06000B4F0B7F0A7EC23F0060E8B
:1022A8003B6E030E30EC22F0600068F62CF0600004
:1022B8006CF62DF08CEC2CF06000B0F0B6F06000FD
:1022C800B4F0B7F0A7EC23F00B0E3B6E030E30EC26
:1022D80022F0600060F62CF0600064F62DF08CECC3
:1022E8002CF06000B0F0B6F06000B4F0B7F0A7ECE6
:1022F80023F0100E3B6E030E30EC22F0600058F60F
:102308002CF060005CF62DF08CEC2CF06000B0F046
:10231800B6F06000B4F0B7F0A7EC23F0010E3B6E06
:10232800040E30EC22F0600050F62CF0600054F6F9
:102338002DF08CEC2CF06000B0F0B6F06000B4F03A
:10234800B7F0A7EC23F00B0E3B6E040E30EC22F036
:10235800600048F62CF060004CF62DF08CEC2CF068
:102368006000B0F0B6F06000B4F0B7F0A7EC23F06E
:1023780012003EEC2EF00009D8B41200000E000145
:10238800C16F000EC06F000EC16F000EC06FC1BFDD
:1023980006D0C1510FE12E0EC05DD8B00BD0000E93
:1023A800C025D96E010EC121DA6E000EDF6EC04B5A
:1023B800C12BEDD7000EC16F000EC06F21D0E2EC2B
:1023C80028F00001BD6F000EC025D96E010EC12195
:1023D800DA6E6000F7F2DFFFC04BC12B680E000118
:1023E800BD6FE40EE82EFED7BD2FFCD700F000012C
:1023F800C1BF06D0C15109E12F0EC05DD8B005D0CC
:102408003EEC2EF00009D8A4DAD7F40E0001BE6F16
:10241800000EBF6F010100518FEC21F076EC24F023
:102428006000FBF2D9FF6000FFF2DAFF600007F4FA
:10243800DFFF000120EE01F0BE51D926BF51DA229C
:1024480060000BF4DFFF20EE02F0BE51D926BF5129
:10245800DA2260000FF4DFFF20EE03F0BE51D92628
:10246800BF51DA22600013F4DFFF18EC23F00101FA
:1024780005B113D0600008F338F060000CF339F0B0
:10248800600010F33AF0330E3B6EEB0E3C6E410EDB
:102498003D6E80EC22F0D8B003D0010E00010BD0C5
:1024A800600014F4BDF00001D890BD33BDA102D086
:1024B800020E01D0000EE96F020EEB19D8A443D02A
:1024C800BF0E606F020E616FEA0E626FFF0E636FE0
:1024D8006000D0F364F06000D4F365F06000D8F3D6
:1024E80066F06000DCF367F00FEC00F0030E3B6E63
:1024F800030E30EC22F04D0E0001B66FFE0EB76FE2
:10250800A7EC23F0030E3B6E030E30EC22F0BF0E57
:102518000001B66F020EB76FA7EC23F0600014F449
:10252800BDF00001D890BD33D890BD33D890BD33ED
:10253800BDB11200020EF7EC26F0000E0001EB6FA1
:1025480089EC28F01200600014F4BDF00001D89066
:10255800BD33D890BD33D890BD33BDA11200ADECCA
:1025680029F01200600038F101F0026A036A4D3464
:10257800013601E302800150066E600044F101F06B
:10258800026A036A5034013601E302800150056E85
:102598000650D8B40BD00550065CD8B011D0065000
:1025A80000080524016E180E01640AD060003CF191
:1025B8004CF0600040F14DF0600044F14EF0120024
:1025C8000550D8B40BD00650055CD8B011D00550D2
:1025D80000080624016E180E01640AD0600030F16C
:1025E8004CF0600034F14DF0600038F14EF012000C
:1025F800060E046E4EBE048E51BE048C4D8EFF0E28
:102608004C16FF0E4D16000E4E16508EFF0E4F162E
:10261800FF0E5016000E51160550065CD8B01CD09F
:10262800D8904F3650365136050606500518D8B49E
:102638000ED00406600010F001F0070E0116D8B4A1
:1026480006D0EED7D8904E324D324C32062A05507D
:102658000618D8B420D0F6D70650055CD8B01BD0E1
:10266800D8904C364D364E36060606500518D8B466
:102678000ED00406600010F001F0070E0116D8B461
:1026880006D0EED7D890513250324F32052A055035
:102698000618D8A4F7D704AE0CD0FF0E4C1AFF0EBC
:1026A8004D1AFF0E4E1A010E4C26000E4D22000E3A
:1026B8004E2204AC0CD0FF0E4F1AFF0E501AFF0E1C
:1026C800511A010E4F26000E5022000E5122000E04
:1026D800046E4C504F264D5050224E50512251AE50
:1026E8000ED0FF0E4F1AFF0E501AFF0E511A010E90
:1026F8004F26000E5022000E5122010E046E60007B
:102708003CF138F0600040F139F0600044F13AF0F3
:10271800600018F03BF0600010F03CF0E2EC1FF0B5
:102728006000E0F04CF06000E4F04DF06000E8F08C
:102738004EF01200526E72D05250D8B408D0FF0E2C
:102748003C6EFD0E3D6E010E2CEC28F07AD0FF0E8B
:102758003C6EFD0E3D6E000E2CEC28F072D05250EF
:10276800D8B408D0F70E3C6EFD0E3D6E010E2CEC71
:1027780028F067D0F70E3C6EFD0E3D6E000E2CEC77
:1027880028F05FD05250D8B408D0EF0E3C6EFD0E42
:102798003D6E010E2CEC28F054D0EF0E3C6EFD0E71
:1027A8003D6E000E2CEC28F04CD05250D8B408D016
:1027B800E70E3C6EFD0E3D6E010E2CEC28F041D06C
:1027C800E70E3C6EFD0E3D6E000E2CEC28F039D065
:1027D8005250D8B408D0DF0E3C6EFD0E3D6E010E8F
:1027E8002CEC28F02ED0DF0E3C6EFD0E3D6E000E58
:1027F8002CEC28F026D05250D8B408D0DF0E3C6E0E
:10280800FD0E3D6E010E2CEC28F01BD0DF0E3C6E49
:10281800FD0E3D6E000E2CEC28F013D03050000A4F
:10282800D8B48AD7010AD8B49AD7030AD8B4AAD791
:10283800010AD8B4BAD7070AD8B4CAD7010AD8B493
:10284800DAD75250D8B402D0010E01D0000E0001E0
:10285800DD6FEB05D8B40BD0020EEB19D8B407D056
:102868003F01CAA71AD00001EB51D8B416D00F0EF9
:102878003B6E010E30EC22F0590E0001B66FFE0ED1
:10288800B76FA7EC23F00F0E3B6E010E30EC22F071
:102898000001DD515EEC2AF012000B0E3B6E030EB8
:1028A80030EC22F0590E0001B66FFE0EB76FA7ECA0
:1028B80023F00B0E3B6E030E30EC22F00001DD51CD
:1028C8005EEC2AF01200000E0C6E010E0B6E000E6C
:1028D8000C6E010E0B6E0CBE06D00C5075E1030E8B
:1028E8000B5CD8B071D0000E016E000E026E000EA7
:1028F800036E000E046E000E0A6E000E096E000EC6
:102908000A6E000E096E0ABE06D00A501AE1100EB1
:10291800095CD8B016D00B502DEC27F03C5001269E
:102928003D500222000E0322000E0422150E436EB3
:10293800C60EE82EFED7432EFCD700D0094A0A2A35
:10294800E2D7600004F043F0600008F044F0600053
:102958000CF045F0600010F046F0050E05D0D89058
:102968004632453244324332E82EF9D7FE0E476EDE
:10297800FF0E486E60002CF049F0600030F04AF01D
:10298800D89049364A364750492648504A22050EBB
:102998004924D96E000E4A20DA6E60000FF1DEFF7E
:1029A800600013F1DDFF3B0EC1EC2DF001D00400F7
:1029B800C9EC2DF00009D8B4FAD70B4A0C2A0CBE82
:1029C80092D70C5001E18BD760001CF040F06000FA
:1029D80020F041F032EC2CF0600000F1B1F1600021
:1029E80004F1B2F1600008F1B3F1600014F040F0B6
:1029F800600018F041F032EC2CF0600000F1AEF10C
:102A0800600004F1AFF1600008F1B0F112000001BC
:102A1800BE6F3F01BC87010E396EA80E386E01ECFF
:102A28002CF03F017E8F0ED0AD0E0001BF6FFE0E61
:102A380007D0D10EBF6FFE0E03D0140EBF6FFF0E6E
:102A4800C06F0BD00001BE51010AD8B4EDD7030AFC
:102A5800D8B4EFD7010AD8B4F0D7030EBE19D8A45A
:102A680037D079EC2DF00A0E3B6E010E30EC22F0D7
:102A7800040E5EEC2AF0040E5EEC2AF0040E5EEC06
:102A88002AF0020E3B6E020E30EC22F06000FCF2DF
:102A9800B6F0600000F3B7F0A7EC23F0010E3B6E30
:102AA800030E30EC22F0BF0E0001B66FFE0EB76FBA
:102AB800A7EC23F0520E0001BD6F2B0EBC6F000E69
:102AC800E82EFED7BC2FFCD7BD2FFAD700F029D0AF
:102AD80079EC2DF00A0E3B6E010E30EC22F0040E5C
:102AE8005EEC2AF0040E5EEC2AF0040E5EEC2AF08E
:102AF800020E3B6E020E30EC22F06000FCF2B6F0E3
:102B0800600000F3B7F0A7EC23F0010E3B6E030E54
:102B180030EC22F0850E0001B66FFE0EB76FA7EC01
:102B280023F0520E0001BD6F2B0EBC6F000EE82E75
:102B3800FED7BC2FFCD7BD2FFAD700F03F01BC97BA
:102B4800890E076E010E086E3CEC21F089EC28F026
:102B58001200600030F146F0600034F147F0000EDA
:102B6800496E030E486E49EC2CF0600018F101F034
:102B780060001CF102F03F01000ED2BF010E036E8F
:102B8800000ED2BD010E046ED29FD29D000E066EBD
:102B9800000E056E63D005504E24D96E06504F20A6
:102BA800DA6EDF50316E3F01BB8F00F031AEBB9F54
:102BB80000F0BB9F00F000F000F000F000F0BB8FC9
:102BC80000F031ACBB9F00F0BB9F00F000F000F0BC
:102BD80000F000F0BB8F00F031AABB9F00F0BB9F54
:102BE80000F000F000F000F000F0BB8F00F031A81A
:102BF800BB9F00F0BB9F00F000F000F000F000F079
:102C0800BB8F00F031A6BB9F00F0BB9F00F000F027
:102C180000F000F000F0BB8F00F031A4BB9F00F083
:102C2800BB9F00F000F000F000F000F0BB8F00F058
:102C380031A2BB9F00F0BB9F00F000F000F000F055
:102C480000F0BB8F00F031A0BB9F00F0BB9F00F0ED
:102C580000F000F000F000F0054A062A0150055C7B
:102C680002500658D8A097D703B003D03F01D29F8F
:102C780002D03F01D28F04B002D0D29D02D03F01D2
:102C8800D28D0B0E506E620EE82EFED7502EFCD75A
:102C980000D012006000E8F03EF03F6A406A393424
:102CA8003E3601E33F803E50466E4650D8A409D0D8
:102CB800000E386E000E396E000E3A6E000E3B6E36
:102CC80012006000F4F03EF03F6A406A3C343E3641
:102CD80001E33F803E50456E4550D8A409D0000E10
:102CE800386E000E396E000E3A6E000E3B6E120002
:102CF800398EFF0E3816FF0E3916000E3A163C8E26
:102D0800FF0E3B16FF0E3C16000E3D16000E416EE0
:102D1800000E426E000E436E000E446E7F0E465E3D
:102D28004550980F465E180E456ED890413642368B
:102D3800433644363B50385C3C5039583D503A583D
:102D4800D8A007D03B50385E3C50395A3D503A5ACB
:102D58004180D890383639363A36452EE6D746AED1
:102D680016D04650800A970FD8B009D0000E386E9A
:102D7800000E396E000E3A6E000E3B6E1200D890AF
:102D88004432433242324132463EF9D715D0170E0B
:102D980046640FD0000E386E000E396E000E3A6E83
:102DA800000E3B6E1200D890413642364336443608
:102DB80046064650D8A4F7D7600004F138F0600002
:102DC80008F139F060000CF13AF0600010F13BF0C6
:102DD800120079EC2DF0010E3B6E010E30EC22F062
:102DE800070E5EEC2AF0100E3B6E010E30EC22F05E
:102DF8000101005176EC2CF06000B0F0B6F06000F4
:102E0800B4F0B7F0A7EC23F0040E3B6E010E30ECE3
:102E180022F0990E0001B66FFF0EB76FA7EC23F0F2
:102E2800010E3B6E020E30EC22F0600040F62CF0F2
:102E3800600044F62DF08CEC2CF06000B0F0B6F099
:102E48006000B4F0B7F0A7EC23F0060E3B6E020E5C
:102E580030EC22F0600038F62CF060003CF62DF0E3
:102E68008CEC2CF06000B0F0B6F06000B4F0B7F075
:102E7800A7EC23F00B0E3B6E020E30EC22F0600044
:102E880030F62CF0600034F62DF08CEC2CF060005D
:102E9800B0F0B6F06000B4F0B7F0A7EC23F0010E84
:102EA8003B6E030E30EC22F0600014F62CF060004C
:102EB80018F62DF060001CF62EF0600020F62FF0BA
:102EC8002FEC2BF06000B0F0B6F06000B4F0B7F073
:102ED800A7EC23F0010E3B6E040E30EC22F06000EC
:102EE80004F62CF0600008F62DF060000CF62EF0C9
:102EF800600010F62FF02FEC2BF06000B0F0B6F069
:102F08006000B4F0B7F0A7EC23F01200000E136EC7
:102F18003F01CCBF62D0050E526E0F0E516EF10EFE
:102F2800E82EFED7512EFCD7522EFAD700F03F01DB
:102F3800CCBF0ED00001E151D8A402D0010E01D0BF
:102F4800000EE16F010E136E47EC2EF001D0040065
:102F58003F01CCAFFCD7090E0001DE6539D0430E26
:102F680087EC29F0DF0E076E010E086E3CEC21F0AD
:102F7800290E526E960E516E7F0EE82EFED7512EF8
:102F8800FCD7522EFAD700F0890E076E010E086E94
:102F98003CEC21F00001DF51D8A402D0010E01D091
:102FA800000EDF6FDF51D8A409D0010E136E000E9A
:102FB800E16F000EEB6F3F01CA9305D0030E0001CD
:102FC800EB6F000E136E000E0001DE6F44EC2EF066
:102FD800000E0001DE6F44EC2EF041EC2EF00009EB
:102FE800D8B412D00DEC29F0126E310E1218D8A4F4
:102FF80002D0010E05D0300E1218D8A405D0000E4C
:103008000001E16F010E136E1350D8B412000001D5
:10301800DF51D8A41200E151D8B408D03F01BA91C9
:10302800010E0001EB6F000E136E1200E151D8A4DF
:103038001200000EEB6F3F01BA8189EC28F0000EF8
:10304800136E1200600E0001D35D090ED459D8A08A
:1030580011D0030EE86F010ED66FF30ED56F600026
:1030680054F338F0600058F339F0E8EC2BF03F01E6
:103078007A8F1200D00E0001D35D070ED459D8B054
:1030880006D0D00ED15D070ED259D8A010D0010EAF
:10309800D66FF30ED56F600054F338F0600058F324
:1030A80039F0E8EC2BF03F017A8FCA9312006C0ECE
:1030B8000001D35D070ED459D8B006D06C0ED15D8F
:1030C800070ED259D8A010D0010ED66F860ED56F34
:1030D800600054F338F0600058F339F0E8EC2BF056
:1030E8003F017A8FCA931200A40E0001D35D060E29
:1030F800D459D8B006D0A40ED15D060ED259D8A0A6
:1031080010D0010ED66F220ED56F600054F338F040
:10311800600058F339F0E8EC2BF03F017A8FCA933E
:103128001200400E0001D35D060ED459D8B006D067
:10313800400ED15D060ED259D8A010D0000ED66F21
:10314800BE0ED56F600054F338F0600058F339F0C4
:10315800E8EC2BF03F017A8FCA931200000E0001B1
:10316800D66F000ED56F000E396E000E386EE8EC83
:103178002BF03F017A9FCA9312003B6E3BB003D0FD
:103188003F01BB9102D03F01BB81BB93396A38AE86
:1031980001D0392A010E3916393A3946BB51391846
:1031A800DF0B3918BB6F6000E0F039F0060E3A6E9D
:1031B800D89039323A2EFCD7010E3916393ABB511C
:1031C8003918EF0B3918BB6F6000E0F039F0050EC5
:1031D8003A6ED89039323A2EFCD7010E3916394654
:1031E80039463946BB513918F70B3918BB6F60009F
:1031F800E0F039F0393A0F0E3916010E3916394612
:103208003946BB513918FB0B3918BB6FBB836A0EA3
:10321800E82EFED700D03F01BB936000E0F039F004
:10322800D8903932D8903932D8903932010E3916BF
:10323800393A3946BB513918DF0B3918BB6F600072
:10324800E0F039F0D8903932D8903932010E391679
:10325800393ABB513918EF0B3918BB6F6000E0F0F1
:1032680039F0D8903932010E39163946394639467F
:10327800BB513918F70B3918BB6F6000E0F039F013
:10328800010E391639463946BB513918FB0B391826
:10329800BB6FBB836A0EE82EFED700D03F01BB93FD
:1032A800BB93D50EE82EFED700F012003A343B341B
:1032B800436E4350D8A409D0000E386E000E396E04
:1032C800000E3A6E000E3B6E12003D343E34426EE4
:1032D8004250D8A409D0000E386E000E396E000E88
:1032E8003A6E000E3B6E12003A8EFF0E3816FF0E35
:1032F8003916FF0E3A16000E3B163D8EFF0E3B1692
:10330800FF0E3C16FF0E3D16000E3E16000E3E6EDA
:10331800000E3F6E000E406E000E416E7F0E435E43
:103328004250A00F435E200E426ED8903E363F3684
:10333800403641363B50385C3C5039583D503A583D
:103348003E503B58D8A009D03B50385E3C50395AC3
:103358003D503A5A3E503B5A3E80D890383639361E
:103368003A363B36422EE1D743AE16D04350800A58
:103378009F0FD8B009D0000E386E000E396E000EBF
:103388003A6E000E3B6E1200D890413240323F3206
:103398003E32433EF9D715D01F0E43640FD0000EBE
:1033A800386E000E396E000E3A6E000E3B6E12003B
:1033B800D8903E363F364036413643064350D8A46F
:1033C800F7D76000F8F038F06000FCF039F06000E2
:1033D80000F13AF0600004F13BF01200BDEC11F08E
:1033E8000001E905D8A40BD0EA05D8B408D0EB054C
:1033F800D8A405D0020EE86F3F01BC871200600018
:103408002CF338F0600030F339F0600034F33AF010
:10341800000E3B6ED40E3C6E410E3D6E80EC22F0E9
:10342800D8A02CD0090E03018C6F1E0E8B6FE40EF2
:10343800E82EFED78B2FFCD78C2FFAD700F006EC9E
:103448001BF054EC09F060002CF338F0600030F306
:1034580039F0600034F33AF0000E3B6ED40E3C6E47
:10346800410E3D6E80EC22F0D8A008D03F01BA8111
:10347800010E0001E86F3F01BC871200000E386E94
:103488007A0E396E440E3A6E600014F33BF0600019
:1034980018F33CF060001CF33DF080EC22F0D8B04B
:1034A8001200090E03018C6F1E0E8B6FE40EE82EBE
:1034B800FED78B2FFCD78C2FFAD700F006EC1BF029
:1034C80054EC09F0000E386E7A0E396E440E3A6EDE
:1034D800600014F33BF0600018F33CF060001CF34C
:1034E8003DF080EC22F0D8B012003F01BA81010E05
:1034F8000001E86F3F01BC871200600024F00DF066
:103508000E6A0F6A08340D3601E30E800D50106EF6
:103518001050D8A407D0000E076E000E086E000EDB
:10352800096E1200600030F00DF00E6A0F6A0B345D
:103538000D3601E30E800D50156E1550D8A407D036
:10354800000E076E000E086E000E096E1200155070
:103558007B0F1026600024F015F00C50151A800E11
:103568001516088E0B8EFF0E0A16FF0E0B16000E90
:103578000C16000E116E000E126E000E136E070E62
:10358800146E07A006D00A5011260B5012220C50B8
:103598001322D890093208320732D8900A360B36EF
:1035A8000C36142EEED7090E146E07A006D00A505A
:1035B80011260B5012220C501322D89009320832CF
:1035C8000732D890133212321132142EEED760001F
:1035D80044F038F0600048F039F060004CF03AF000
:1035E800600040F03BF0600054F03CF0E2EC1FF06B
:1035F8006000E0F007F06000E4F008F06000E8F038
:1036080009F01200000E4F6E010E4E6E000E4F6E46
:10361800010E4E6E4FBE08D04F5005E1070E4E5CAE
:10362800D8B0120001D01200000E4D6E000E4C6E84
:10363800000E486E000E496E000E4A6E000E4B6E6C
:10364800000E4D6E000E4C6E4DBE06D04D501AE168
:10365800100E4C5CD8B016D04E502DEC27F03C50D4
:1036680048263D504922000E4A22000E4B22150ED4
:10367800406EC60EE82EFED7402EFCD700D04C4A2E
:103688004D2AE2D7600020F140F0600024F141F0BB
:10369800600028F142F060002CF143F0050E05D0DF
:1036A800D8904332423241324032E82EF9D7FE0EEA
:1036B800446EFF0E456E600038F146F060003CF144
:1036C80047F0D8904636473644504626455047225C
:1036D8002E0E4624D96E010E4720DA6E600003F1E3
:1036E800DEFF600007F1DDFF3B0EC1EC2DF001D0DD
:1036F8000400C9EC2DF00009D8B4FAD74E4A4F2A75
:103708004FBE92D74F5001E189D7120060007CF07C
:1037180021F0226A236A1E34213601E322802150D7
:103728002B6E2B50D8A409D0000E1D6E000E1E6EF5
:10373800000E1F6E000E206E1200170E216E600024
:1037480074F022F0600078F023F060007CF024F040
:103758002128256E04D0D890243223322232252EF7
:10376800FAD72250266E1E8EFF0E1D16FF0E1E164D
:10377800000E1F161D50276E1E50286E1F50296EF2
:103788002A6A8E0E2B5E2BAE16D02B50800A8F0F16
:10379800D8B009D0000E1D6E000E1E6E000E1F6EF2
:1037A800000E206E1200D8902A3229322832273291
:1037B8002B3EF9D715D0170E2B640FD0000E1D6EB7
:1037C800000E1E6E000E1F6E000E206E1200D890A6
:1037D8002736283629362A362B062B50D8A4F7D771
:1037E8002650D8B408D02A1E291E281E276C000E81
:1037F800282229222A2260009CF01DF06000A0F0F7
:103808001EF06000A4F01FF06000A8F020F0120085
:10381800600008F146F0476A486A4134463601E3D9
:10382800478046504D6E4D50D8A407D0000E406ECC
:10383800000E416E000E426E1200600014F146F058
:10384800476A486A4434463601E3478046504E6E1C
:103858004E50D8A407D0000E406E000E416E000EE8
:10386800426E1200000E4A6E000E4B6E000E4C6E39
:103878004E50890F4D5E600008F14EF045504E1ACB
:10388800800E4E16418EFF0E4016FF0E4116000E9A
:103898004216448EFF0E4316FF0E4416000E4516C0
:1038A800180E496ED8904A364B364C364350405C19
:1038B8004450415845504258D8A007D04350405E24
:1038C8004450415A4550425A4A80D8904036413671
:1038D8004236492EE7D7600028F138F060002CF115
:1038E80039F0600030F13AF0600034F13BF06000EC
:1038F80038F13CF0E2EC1FF06000E0F040F06000CE
:10390800E4F041F06000E8F042F01200010E3B6E76
:10391800020E30EC22F0460E0001B66FFE0EB76FB5
:10392800A7EC23F0010E3B6E020E30EC22F0CA0E1B
:103938000001B66FFF0EB76FA7EC23F0010E3B6EC8
:10394800030E30EC22F0460E0001B66FFE0EB76F84
:10395800A7EC23F0010E3B6E030E30EC22F07E0E36
:103968000001B66FFF0EB76FA7EC23F0010E3B6E98
:10397800040E30EC22F0470E0001B66FFE0EB76F52
:10398800A7EC23F0010E3B6E040E30EC22F0AB0ED8
:103998000001B66FFF0EB76FA7EC23F0090E3B6E60
:1039A800020E30EC22F0600068F52CF060006CF537
:1039B8002DF0600070F52EF003EC1DF06000B0F003
:1039C800B6F06000B4F0B7F0A7EC23F0090E3B6E38
:1039D800030E30EC22F0D40E0001B66F020EB76F62
:1039E800A7EC23F0090E3B6E040E30EC22F06F0EAC
:1039F8000001B66F010EB76FA7EC23F0120060004C
:103A0800B0F01DF06000B4F01EF06000B8F01FF0D8
:103A18008AEC1BF0600074F0B4F0600078F0B5F048
:103A2800000E0A6EC80E0B6E420E0C6E6000B0F0EF
:103A38004FF06000B4F050F06000B8F051F0600052
:103A4800D0F240F06000D4F241F01AEC2AF06000A5
:103A580000F144F0600004F145F0600008F146F020
:103A6800A2EC2CF0600010F14CF0600014F14DF065
:103A7800600018F14EF0B6EC12F0600030F107F07B
:103A8800600034F108F0600038F109F081EC1AF0B8
:103A980060001CF01DF0600020F01EF0600024F0B3
:103AA8001FF08AEC1BF0600074F0B2F0600078F050
:103AB800B3F0AA0E0001606F000E616FD10E626F45
:103AC800FF0E636F6000D0F264F06000D4F265F01E
:103AD8006000C8F266F06000CCF267F00FEC00F00E
:103AE800AA0E2C6E000E2D6E12003EEC2EF0000970
:103AF800D8B41200000E2F6E000E2E6E000E2F6E20
:103B0800000E2E6E2FBE06D02F500FE12E0E2E5C0B
:103B1800D8B00BD0000E2E24D96E010E2F20DA6EED
:103B2800000EDF6E2E4A2F2AEDD7000E2F6E000EE4
:103B38002E6E1ED0E2EC28F0526E000E2E24D96EA6
:103B4800010E2F20DA6E60004BF1DFFF2E4A2F2A7C
:103B5800680E526EE40EE82EFED7522EFCD700D027
:103B68002FBE06D02F5009E12F0E2E5CD8B005D0FD
:103B78003EEC2EF00009D8A4DDD7F40E2C6E000E12
:103B88002D6E6000B3F0D9FF6000B7F0DAFF600077
:103B980007F4DFFF20EE01F02C50D9262D50DA2251
:103BA80060000BF4DFFF20EE02F02C50D9262D50D8
:103BB800DA2260000FF4DFFF20EE03F02C50D92644
:103BC8002D50DA22600013F4DFFF18EC23F0120006
:103BD800010E3B6E020E30EC22F0460E0001B66F6D
:103BE800FE0EB76FA7EC23F0010E3B6E020E30EC11
:103BF80022F0DF0E0001B66FFF0EB76FA7EC23F0BF
:103C0800010E3B6E030E30EC22F0460E0001B66F3B
:103C1800FE0EB76FA7EC23F0010E3B6E030E30ECDF
:103C280022F04C0E0001B66FFF0EB76FA7EC23F021
:103C3800010E3B6E040E30EC22F0460E0001B66F0A
:103C4800FE0EB76FA7EC23F0010E3B6E040E30ECAE
:103C580022F02D0E0001B66FFF0EB76FA7EC23F010
:103C68000B0E3B6E020E30EC22F0CB0E0001B66F4D
:103C7800020EB76FA7EC23F0C4EC1EF00B0E3B6EE0
:103C8800040E30EC22F0DC0E0001B66F010EB76FA7
:103C9800A7EC23F0E30E0001B66FFF0EB76FA7EC99
:103CA80023F0D90E0001B66F010EB76FA7EC23F011
:103CB8001200400E0001606F030E616F0F0E626FFD
:103CC800FE0E636F60002CF364F0600030F365F063
:103CD800600034F366F0600038F367F060003CF38E
:103CE80068F0600040F369F0600008F36AF0600073
:103CF8000CF36BF0600010F36CF060007CF56DF075
:103D0800600080F56EF06F0E6F6F010E706F6000CF
:103D180000F471F0726B6000D0F373F06000D4F3BC
:103D280074F06000D8F375F06000DCF376F06000A2
:103D3800C4F377F0786B600054F179F07A6B600027
:103D480018F47BF07C6B60001CF47DF07E6B6000E7
:103D58009CF37FF0806B6000ACF381F0826B6000B5
:103D6800A8F383F0846B6000A0F385F0866B0FECFA
:103D780000F0400E396E030E3A6E60EC2CF0120023
:103D88000A0E0001F1610FD0BC0E606F000E616F6A
:103D9800F30E626FFF0E636F6000C4F364F0656B2F
:103DA8000FEC00F00FD0BC0E0001606F000E616FC9
:103DB800430E626FFE0E636F6000C4F364F0656BC0
:103DC8000FEC00F00A0E556010D0BF0E0001606FB6
:103DD800000E616FF30E626FFF0E636F600054F1A7
:103DE80064F0656B0FEC00F00FD0BF0E0001606F40
:103DF800000E616F430E626FFE0E636F600054F138
:103E080064F0656B0FEC00F00B0E3B6E030E30ECAC
:103E180022F0BC0E0001B66F000EB76FA7EC23F0BE
:103E2800E30E0001B66FFF0EB76FA7EC23F00E0E7E
:103E38003B6E030E30EC22F0BF0E0001B66F000E91
:103E4800B76FA7EC23F0120079EC2DF0080E3B6E4B
:103E5800010E30EC22F0B30E0001B66FFF0EB76F03
:103E6800A7EC23F0070E3C6EFE0E3D6E070E2CEC01
:103E780028F03D0E0001BD6FE10EBC6F3F0EE82E2D
:103E8800FED7BC2FFCD7BD2FFAD700D079EC2DF088
:103E9800010E3B6E010E30EC22F0070E5EEC2AF0AC
:103EA800020E3B6E020E30EC22F0A20E0001B66F3D
:103EB800FF0EB76FA7EC23F0290E0001BD6F960E19
:103EC800BC6F7F0EE82EFED7BC2FFCD7BD2FFAD7CC
:103ED800060E3B6E040E30EC22F0990E0001B66F10
:103EE800FF0EB76FA7EC23F0520E0001BD6F2B0E2B
:103EF800BC6F000EE82EFED7BC2FFCD7BD2FFAD71B
:103F080000F018EC26F01200900EF66E5A0EF76EBE
:103F1800000EF86E00EEDCF210EE21F009006F00E2
:103F2800D7FFEEFFE550E150F9E13C0EF66E550E75
:103F3800F76E000EF86E00EEAEF110EE3AF00900E2
:103F48006F00D7FFEEFFE550E150F9E1A60EF66EDF
:103F58005C0EF76E000EF86E00EEF8F010EE05F04D
:103F680009006F00D7FFEEFFE550E150F9E100EEE0
:103F780000F38B0EEE6AE806FDE100EE00F2DC0EBF
:103F8800EE6AE806FDE100EE00F1AE0EEE6AE80624
:103F9800FDE100EEC2F0360EEE6AE806FDE100EE45
:103FA80053F0070EEE6AE806FDE1080ED56E000E26
:103FB800D66E000ED76E000164EF0BF03B50D8B4FC
:103FC80005D0385039103A10D8A40CD0000E386EED
:103FD800000E396E000E3A6E12003B2AD8903A3223
:103FE80039323832000E38143D6E000E39143E6EE8
:103FF800FE0E3A143F6E3D503E103F10D8B40CD020
:10400800ECD73B2A010E3826000E3922000E3A2240
:10401800D8903A3239323832000E38143D6E000EDC
:1040280039143E6EFF0E3A143F6E3D503E103F105D
:10403800D8B406D0E6D73B06D890383639363A3663
:1040480039BE03D0020E3B60F6D73BA0399ED8900C
:104058003B323B503A123C50D8A43A8E6000E0F014
:1040680038F06000E4F039F06000E8F03AF012004F
:1040780039019397240E386E410E396EFAEC2DF003
:1040880039019399240E386E560E396EF3EC2DF0E3
:10409800000E3D01EC6F000EED6F000EEE6F000E8E
:1040A800EF6F000EF06F000EF16FB00EF26F800E22
:1040B800F36F400EF46F400EF56F030EF66F000EAF
:1040C800F76F000EF86F000EF96F000EFA6FB20E60
:1040D800386E5C0E396E08EC2EF0B00E386E5C0E41
:1040E800396E01EC2EF09A0E386E5C0E396E0FECBC
:1040F8002EF0000E01016E6F000E596E000E0001C9
:10410800F36F400E0101FF6F000E586E000E576EE0
:10411800000E0001F26F3901938712005850010D0B
:10412800000EF324D96E020EF420DA6E000EDF6E54
:104138003D01F9A716D05850010D000EF324D96E91
:10414800020EF420DA6E0201DF8201D80AD00500DF
:10415800FA6E0101F451FD6EF551FE6EFF6AFA50D8
:1041680012003D01F9A316D05850010D000EF3249A
:10417800D96E020EF420DA6E0201DF8401D80AD06B
:104188000500FA6E0101F251FD6EF351FE6EFF6AF1
:10419800FA5012005850010D000EF324D96E020E89
:1041A800F420DA6EDF50D8B40CD001D81200050024
:1041B800FA6E0101F051FD6EF151FE6EFF6AFA5080
:1041C8001200CBEC2CF012005450010D3E0EF324DB
:1041D800D96E010EF420DA6E000EDF6E3D01E1A704
:1041E80015D05450010D3E0EF324D96E010EF42063
:1041F800DA6E0101DF8201D809D00500FA6EEE51AE
:10420800FD6EEF51FE6EFF6AFA5012003D01E1A308
:1042180015D05450010D3E0EF324D96E010EF42032
:10422800DA6E0101DF8401D809D00500FA6EEC517D
:10423800FD6EED51FE6EFF6AFA5012005450010DEA
:104248003E0EF324D96E010EF420DA6EDF50D8B496
:104258000CD001D812000500FA6E0101EA51FD6E7A
:10426800EB51FE6EFF6AFA501200B7EC2CF0120008
:1042780060001FF0D9FF600023F0DAFFDF50096EFD
:1042880020EE01F00750D9260850DA22DF500A6ED6
:1042980020EE02F00750D9260850DA22DF500B6EC4
:1042A80060001FF0D9FF600023F0DAFFDF500C6ECA
:1042B80020EE01F00750D9260850DA22DF500D6EA3
:1042C80020EE02F00750D9260850DA22DF500E6E91
:1042D80060001FF0D9FF600023F0DAFFDF500F6E97
:1042E80020EE01F00750D9260850DA22DF50106E70
:1042F80020EE02F00750D9260850DA22DF50116E5E
:10430800000E4D6E030E4C6E090E4E6E000E4F6E73
:10431800ADEC15F01200526E7D0E0001606F010EBB
:10432800616FE50E626FFF0E636F600048F164F025
:10433800656B0FEC00F00001EB05D8B40BD0020E52
:10434800EB19D8B407D03F01CAA71DD00001EB5123
:10435800D8B419D0100E3B6E010E30EC22F0550E79
:104368000001B66FFE0EB76FA7EC23F0100E3B6E80
:10437800010E30EC22F07D0E0001B66F010EB76F12
:10438800A7EC23F012000C0E3B6E030E30EC22F06B
:10439800550E0001B66FFE0EB76FA7EC23F00C0E9A
:1043A8003B6E030E30EC22F07D0E0001B66F010E5D
:1043B800B76FA7EC23F0120039019695D00E386E2E
:1043C800410E396ED7EC2DF039019697EA0E386E0A
:1043D800550E396ED0EC2DF0000E3D01D46F000E55
:1043E800D66F000ED86FB00EDA6F800EDB6F000E3E
:1043F800DC6F440EDD6F000EDE6F000EDF6F000E07
:10440800E06F000EE16F000EE26FAE0E386E5C0ECC
:10441800396EE5EC2DF0AC0E386E5C0E396EDEECC4
:104428002DF0940E386E5C0E396EECEC2DF0000E0B
:1044380001016D6F000E0001EE6F000EED6F080EAA
:104448000101FE6F000E546E000E536E000E000147
:10445800EC6F3901968512003C6E3C04D8A410D04C
:104468003B507F0F3F6E3F380F0B3D6E3F500F0B99
:104478003E6E3D5003EC2DF03E5003EC2DF0120043
:10448800020E3C18D8A410D03B50BF0F3F6E3F38E7
:104498000F0B3D6E3F500F0B3E6E3D5003EC2DF061
:1044A8003E5003EC2DF01200030E3C18D8A410D097
:1044B8003B50930F3F6E3F380F0B3D6E3F500F0B35
:1044C8003E6E3D5003EC2DF03E5003EC2DF01200F3
:1044D800040E3C18D8A412003B50D30F3F6E3F384F
:1044E8000F0B3D6E3F500F0B3E6E3D5003EC2DF011
:1044F8003E5003EC2DF012003AAE19D06000E0F007
:104508003EF06000E4F03FF06000E8F040F03E1E4E
:104518003F1E401E3E2A000E3F224022000E3E242F
:10452800386E000E3F20396E800E40203A6E3DAE48
:1045380019D06000ECF03EF06000F0F03FF0600051
:10454800F4F040F03E1E3F1E401E3E2A000E3F2261
:104558004022000E3E243B6E000E3F203C6E800E33
:1045680040203D6E000E381A000E391A800E3A1A95
:10457800000E3B1A000E3C1A800E3D1A3B50385C68
:104588003C5039583D503A58D8B002D0D890120013
:10459800D8801200390196B7A6A70CD001D811000F
:1045A8000500FA6E0101FA51FD6EFB51FE6EFF6ABD
:1045B800FA50120096B5A6A50CD001D81100050036
:1045C800FA6E0101FC51FD6EFD51FE6EFF6AFA5054
:1045D800120093B9A3A90CD001D811000500FA6EF6
:1045E8000101F651FD6EF751FE6EFF6AFA50120096
:1045F80093B7A3A70CD001D811000500FA6E0101EA
:10460800F851FD6EF951FE6EFF6AFA50120093BF21
:10461800A3AF03D0B5EC2BF0110094A11100A4A115
:10462800110066EC2BF0110006C1DBF007C1DAF0CF
:104638000A0E0001DB610FD0DC0E606F010E616FA6
:10464800F30E626FFF0E636F60006CF364F0656BCE
:104658000FEC00F00FD0DC0E0001606F010E616FEF
:10466800430E626FFE0E636F60006CF364F0656B5F
:104678000FEC00F00A0E0001DA610FD0D90E606F5E
:10468800010E616FF30E626FFF0E636F600068F3D7
:1046980064F0656B0FEC00F01200D90E0001606F3A
:1046A800010E616F430E626FFE0E636F600068F368
:1046B80064F0656B0FEC00F012003F01BA8124EC46
:1046C8002EF0010E3B6E010E30EC22F0070E5EEC70
:1046D8002AF0040E3B6E010E30EC22F0990E000118
:1046E800B66FFF0EB76FA7EC23F0060E3B6E020EF7
:1046F80030EC22F0210E0001B66FFF0EB76FA7EC69
:1047080023F0010E3B6E030E30EC22F0990E0001EF
:10471800B66FFE0EB76FA7EC23F0010E396EA80E28
:10472800386E01EC2CF03F017E8F3D0E0001BD6F0D
:10473800E10EBC6F3F0EE82EFED7BC2FFCD7BD2F75
:10474800FAD700D01200000E0001BB6F000EBA6F3E
:1047580021D00001BA51B625B86FBB51B721B96F46
:104768006000E3F2F6FF6000E7F2F7FF000EF86E74
:104778000F0EF76403D00800F55007D06F00DBFF79
:10478800E9FF6F00DFFFEAFFEF505EEC2AF000015F
:10479800BA4BBB2BBA51B625B86FBB51B721B96F0D
:1047A8006000E3F2F6FF6000E7F2F7FF000EF86E34
:1047B8000F0EF76403D00800F55007D06F00DBFF39
:1047C800E9FF6F00DFFFEAFFEF500009D8B41200DD
:1047D800C0D7000E406E000E416E000E426E000EF5
:1047E800436E3C503D103E103F10D8B42AD0010E05
:1047F800446E06D0D8903C363D363E363F36442A85
:104808003FAEF8D7D89040364136423643363C5012
:10481800385C3D5039583E503A583F503B58D8A024
:1048280009D03C50385E3D50395A3E503A5A3F50B4
:104838003B5A4080D8903F323E323D323C32442E83
:10484800E1D7600000F138F0600004F139F0600051
:1048580008F13AF060000CF13BF01200000E436ED4
:1048680041AE06D0406C411ED8B0412A010E436EBD
:104878003FAE06D03E6C3F1ED8B03F2A010E431A09
:10488800000E456E000E446E40504110D8B41CD046
:10489800010E426E04D0D89040364136422A41AECD
:1048A800FAD7D8904436453640503E5C41503F5880
:1048B800D8A005D040503E5E41503F5A4480D89021
:1048C80041324032422EEDD74350D8B404D0446C24
:1048D800451ED8B0452A600010F13EF0600014F182
:1048E8003FF0120001010051D8B405D01A0E006142
:1048F80002D0010E23D0190E0101006505D0330E38
:10490800006102D0020E1AD0310E0101006505D0F7
:104918004B0E006102D0030E11D04A0E0101006552
:1049280005D0640E006102D0040E08D0640E0101A7
:104938000019D8A402D0050E01D0000E0001BC6FEA
:104948006000F0F2FCF0E051D8A402D0010E01D0D2
:10495800000EE06F6000F0F330F0E0519EEC13F0D1
:10496800120024EC2EF00A0E3B6E030E30EC22F0FF
:10497800030E5EEC2AF00B0E3B6E030E30EC22F0B9
:1049880076EC24F0010100518FEC21F0020E0001B9
:10499800E919D8A40DD0040E3B6E020E30EC22F0BB
:1049A800050E0001B66FFF0EB76FA7EC23F00CD011
:1049B800040E3B6E020E30EC22F0F50E0001B66FCD
:1049C800FE0EB76FA7EC23F03F01B88F010E396ECA
:1049D800A80E386E01EC2CF03F017E8F120024ECFB
:1049E8002EF0010100518FEC21F076EC24F0010E3D
:1049F8003B6E010E30EC22F0070E5EEC2AF0040E3E
:104A08003B6E010E30EC22F0990E0001B66FFF0EDE
:104A1800B76FA7EC23F0010E3B6E020E30EC22F0CC
:104A28005B0E0001B66FFE0EB76FA7EC23F0010E08
:104A38003B6E030E30EC22F0FB0E0001B66FFF0E4A
:104A4800B76FA7EC23F0010E396EA80E386E01EC93
:104A58002CF03F017E8F120006EC1BF054EC09F09D
:104A6800000E386E800E396E3F0E3A6E600038F3D5
:104A78003BF060003CF33CF0600040F33DF080EC1C
:104A880022F0D8B018D060002CF338F0600030F372
:104A980039F0600034F33AF0600038F33BF060001E
:104AA8003CF33CF0600040F33DF080EC22F0D8B0DD
:104AB80002D0010E01D0000E0001EA6FEF51D8B408
:104AC8001200000EEF6F5DEC1EF01200000E3F01A9
:104AD800BA6F000EBB6F300EBC6FFC0EC26F000EBB
:104AE800C36FA50EC46F010E3A01606F000E506FC0
:104AF800F40E406F000E816F000E516F000E416F73
:104B0800800E616F000E5A6F000E5B6F000E6A6FA9
:104B1800000E6B6F000E426F000E526F000E626F38
:104B2800436953696369120EE86F090E0E6F0A0E26
:104B3800116F160E146F130E166F150EE56F120017
:104B4800000E3D6E39AE06D0386C391ED8B0392A01
:104B5800010E3D6E3BAE04D03A6C3B1ED8B03B2AEA
:104B68003A503B10D8B418D0010E3C6E04D0D890FF
:104B78003A363B363C2A3BAEFAD73A50385C3B5083
:104B88003958D8A004D03A50385E3B50395AD8909A
:104B98003B323A323C2EF1D73D50D8B404D0386C71
:104BA800391ED8B0392A6000E0F038F06000E4F02F
:104BB80039F01200000E376E33AE06D0326C331E59
:104BC800D8B0332A010E376E35AE04D0346C351E9A
:104BD800D8B0352A34503510D8B418D0010E366EF6
:104BE80004D0D89034363536362A35AEFAD7345014
:104BF800325C35503358D8A004D03450325E35502A
:104C0800335AD89035323432362EF1D73750D8B49B
:104C180004D0326C331ED8B0332A6000C8F032F0AA
:104C28006000CCF033F01200FF0E3C6EFD0E3D6EBE
:104C3800000E2CEC28F0DF0E3C6EFD0E3D6E010ED2
:104C48002CEC28F0CF0E3C6EFD0E3D6E020E2CECC7
:104C580028F0C70E3C6EFD0E3D6E030E2CEC28F0BE
:104C6800BF0E3C6EFD0E3D6E040E2CEC28F0B70E08
:104C78003C6EFD0E3D6E050E2CEC28F0D70E3C6EFA
:104C8800FD0E3D6E060E2CEC28F0070E3C6EFE0E57
:104C98003D6E070E2CEC28F01200600014F307F0AC
:104CA800600018F308F060001CF309F00B0E0A6EA0
:104CB800B60E0B6E3A0E0C6E81EC1AF060001CF00A
:104CC80016F0600020F017F0600024F018F0600083
:104CD80020F34CF0600024F34DF0600028F34EF010
:104CE800600058F04FF060005CF050F0600060F039
:104CF80051F0B6EC12F0600030F1C8F0600034F109
:104D0800C9F0600038F1CAF0120049504A104B103F
:104D18004C10D8B424D0010E4D6E06D0D890493628
:104D28004A364B364C364D2A4CAEF8D74950455C7E
:104D38004A5046584B5047584C504858D8A008D06D
:104D48004950455E4A50465A4B50475A4C50485A6B
:104D5800D8904C324B324A3249324D2EE7D7600058
:104D680014F145F0600018F146F060001CF147F0BE
:104D7800600020F148F01200000E1AEC2CF0D00E62
:104D88003B6ECA0EE82EFED73B2EFCD7030E03EC73
:104D98002DF0340E3B6EF20EE82EFED73B2EFCD7DC
:104DA800030E03EC2DF0730E3B6E480EE82EFED773
:104DB8003B2EFCD7030E03EC2DF0020E03EC2DF076
:104DC800020E03EC2DF0080E03EC2DF0000E03ECA0
:104DD8002DF00C0E03EC2DF0000E03EC2DF0060E5A
:104DE80003EC2DF012003C6E3C04D8A417D03EEC26
:104DF8002EF00009D8B412000BD0E2EC28F03A6E7D
:104E0800150E396EC60EE82EFED7392EFCD700D007
:104E18003EEC2EF00009D8B41200EFD7020E3C1871
:104E2800D8A4120041EC2EF00009D8B412000BD01F
:104E3800E2EC28F03B6E150E396EC60EE82EFED752
:104E4800392EFCD700D041EC2EF00009D8B412005E
:104E5800EFD73E6E0DD0020E09D0040E07D0050E16
:104E680005D0070E03D0060E01D0100E3F6E13D0EA
:104E78003E50010AD8B4EFD7030AD8B4EED7010AD6
:104E8800D8B4EDD7070AD8B4ECD7010AD8B4EBD711
:104E9800030AD8B4EAD73F50C1EC2DF001D0040082
:104EA800C9EC2DF00009D8B4FAD7B6EC2DF06000A3
:104EB800E0F03CF06000E4F03DF012008E0E486E29
:104EC80006D0D8904332423241324032482A000E4E
:104ED8004014446E000E4114456E000E4214466E96
:104EE800FF0E4314476E4450451046104710D8A48F
:104EF800E8D7600000F138F0600004F139F0600094
:104F080008F13AF0600020F13BF0000E3C6EE2EC54
:104F18001FF06000E0F040F06000E4F041F0600055
:104F2800E8F042F01200106E000E126E000E116EC4
:104F3800000E126E000E116E12BE06D012501CE149
:104F4800090E115CD8B018D010501124516E000E03
:104F58001220526EDC0E5124D96E020E5220DA6EE7
:104F6800070E1124E16E000E1220E26E6F007FFF23
:104F7800E7FF114A122AE0D7000E4D6E030E4C6E61
:104F8800070E4E6E000E4F6EADEC15F01200562A4D
:104F98003B0E56640AD0552A000E566E3B0E5564D9
:104FA80004D00001F12B000E556E600058F132F06C
:104FB800336A000E356E050E346EDEEC25F0325085
:104FC8003310D8A403D0010E0001F06F600058F12F
:104FD80032F0336A000E356E130E346EDEEC25F0B7
:104FE80032503310D8A41200010E0001EF6F1200E6
:104FF80079EC2DF0000E0001E16F3F01BC97BA81FA
:10500800030E0001EB6F3F01B88F000E0001F16F36
:10501800000E556E000E566E000EC86F000EC96F5A
:10502800000ECA6F000EE66F000EE86F000E010159
:105038006C6FDF0E076E010E086E3CEC21F0010E5E
:10504800396EA80E386E01EC2CF03F017E8F1200ED
:10505800406E4050070B406E4038E842F80B40095C
:10506800386E000EC1EC18F0000E426E000E416E54
:1050780042BE06D042501BE1080E415CD8B0120077
:1050880041503C243E6E42503D203F6E6000FBF094
:10509800F6FF6000FFF0F7FFF86A08006F00D4FF22
:1050A80038F0010EC1EC18F0414A422AE1D712004B
:1050B800000E3E01DE6F000EDF6F000EE06F000E87
:1050C800E16F000EE46F000EE56F000EEA6F100E40
:1050D800EC6F000EF16FF369000EF46F000EF56FC0
:1050E800000EF66F000EF76F000EF96F400EFA6FA4
:1050F800570EFB6F000EFC6F030EFD6F000EFE6F68
:105108000F0EFF6F840EF86F120079EC2DF0000E71
:105118000001E16F3F01BC97BA81000E396E000EA5
:10512800386E01EC2CF03F017E9F000E0001EB6F02
:10513800000EF16F000E556E000E566E000EC86F11
:10514800000EC96F000ECA6F000EE66F000EE86F02
:10515800000E01016C6F890E076E010E086E3CECA3
:1051680021F01200000E0001E46F000EE26F6000F3
:1051780090F312F0600088F313F0E35115EC2DF072
:105188000001D951D8A407D0E32B400EE319D8A4C5
:1051980008D0010E05D0E307E351D8A402D0000ED1
:1051A800D96F050E526E0F0E516EF10EE82EFED716
:1051B800512EFCD7522EFAD700F01200000E386E8E
:1051C80001D004000001F251D8B4FBD75750010DAB
:1051D800000EF324D96E020EF420DA6EDF500101BE
:1051E8006E6F5750010D000EF324D96E030EF42094
:1051F800DA6EDF50386E572A3F0E576402D0000E21
:10520800576E390193970001F20739019387385097
:105218001200000E386E01D004000001EC51D8B421
:10522800FBD75350010D3E0EF324D96E010EF42026
:10523800DA6EDF5001016D6F5350010D460EF324F5
:10524800D96E010EF420DA6EDF50386E532A070E3D
:10525800536402D0000E536E390196950001EC0795
:1052680039019685385012000A500B100C10D8B42A
:1052780006D0000E0A1A000E0B1A800E0C1A6000D7
:105288001CF04CF0600020F04DF0600024F04EF06F
:10529800600028F04FF060002CF050F0600030F013
:1052A80051F0B6EC12F0600030F107F0600034F114
:1052B80008F0600038F109F01200000E3F01B36FEA
:1052C800000EB46F010EB56F3C0EB16FB00EB06F2B
:1052D800B0516F00C4FE3AF03B6A6000E8F03BF062
:1052E8003A6A3A100101E86F3B50E96F3901A4911D
:1052F8009481000E386E000E396E16EC2EF0310EC9
:105308003F01B26F1200386E01D004000101FE5156
:10531800D8B4FBD7390196B704D06000E3F0D2FDCA
:1053280015D096970001EE51010D4E0EF324D96E5B
:10533800010EF420DA6E6000E3F0DFFFEE2B070EBB
:10534800EE6502D0000EEE6F0101FE073901968767
:10535800120079EC2DF0000E0001E16F3F01BC97BF
:10536800BA81B88F000E0001F16F000E556E000E65
:10537800566E000EC86F000EC96F000ECA6F000E81
:10538800E86F000E01016C6FE50E076E010E086EE6
:105398003CEC21F0020E0001EB6F120024EC2EF021
:1053A800BBEC2AF0010E3B6E030E30EC22F0460EE9
:1053B8000001B66FFE0EB76FA7EC23F0060E3B6E2A
:1053C800030E30EC22F0870E0001B66FFF0EB76FA8
:1053D800A7EC23F0010E396EA80E386E01EC2CF004
:1053E8003F017E8F120024EC2EF0000E0001F16FB9
:1053F800000E556E000E566EBBEC2AF076EC24F0CB
:10540800010100518FEC21F0E50E076E010E086EC8
:105418003CEC21F03F01BA91010E396EA80E386EAE
:1054280001EC2CF03F017E8FB88F1200000E436E06
:1054380041AE06D0406C411ED8B0412A010E436EE1
:10544800600000F138F0600004F139F03A6A8E0E1D
:105458003B6E60000CF13CF0E2EC1FF06000E0F005
:1054680040F06000E4F041F06000E8F042F0120023
:10547800410E3F01B96F630EB76FC00EB66FB651DC
:105488006F00DCFE3AF03B6A6000E8F03BF03A6AF5
:105498003A100001FD6F3B50FE6F3901A39F938FB7
:1054A800000E386E000E396E1DEC2EF0900E3F0186
:1054B800B86F12003B6E3B500F0B396E3B50F00B30
:1054C8003A6E3F01BB813A380F0B1AEC2CF03F01C2
:1054D800BB836A0EE82EFED700D03F01BB9339503C
:1054E8001AEC2CF03F01BB836A0EE82EFED700D0E1
:1054F8003F01BB931200020E0001E919D8A40DD098
:10550800040E3B6E020E30EC22F0050E0001B66F61
:10551800FF0EB76FA7EC23F01200040E3B6E020ECD
:1055280030EC22F0F50E0001B66FFE0EB76FA7EC57
:1055380023F01200A01B45401C454000008C018E42
:1055480001900192019401960198019A019C019E93
:1055580001A001A201A401A601A801AA01AC013081
:1055680030003030002A400000400014004024EC95
:105578002EF0010E3B6E010E30EC22F0070E5EECB1
:105588002AF076EC24F0010100518FEC21F0040E92
:105598003B6E010E30EC22F0990E0001B66FFF0E43
:1055A800B76FA7EC23F012003BEC2EF0F1EC2CF0D7
:1055B8006AEC25F09FEC2DF02BEC2EF031EC2EF060
:1055C80087EC2DF05CEC28F026EC2DF03CEC2AF072
:1055D80093EC2DF061EC29F03CEC20F0E0EC21F0AC
:1055E8001200080E0101FE6116D00001ED51010DF7
:1055F8004E0EF324D96E010EF420DA6EDF503D0111
:10560800D26F0001ED2B070EED6502D0000EED6F95
:105618000101FE2B1200390196971200400E01017C
:10562800FF6116D00001F351010D400EF324D96E2D
:10563800020EF420DA6EDF503D01EA6F0001F32B11
:105648003F0EF36502D0000EF36F0101FF2B12002D
:10565800390193991200AA0E0001606F000E616F64
:10566800F70E626FFF0E636F6000B0F064F06000C9
:10567800B4F065F06000B8F066F06000BCF067F068
:105688000FEC00F0AA0E2C6E000E2D6E1200070E05
:105698000001DC6105D0ECEC1DF09BEC2BF0120056
:1056A800060E0001DC6512000C0EDC6112008AECAB
:1056B8001CF09BEC2BF00A0E0001DC651200000EBA
:1056C800DC6F12003901A4916000A0F732F060008D
:1056D800A4F733F037EC2DF001015D4B5E2B5E51E2
:1056E80004E1140E5D5DD8A0120050EC2EF0000EFF
:1056F80001015E6F000E5D6F12000001E805D8A47D
:1057080004D0010E0BEC15F01200020E0001E8198E
:10571800D8A404D0020E0BEC15F01200030E000101
:10572800E819D8A41200030E0BEC15F012000001C2
:10573800EA05D8A409D00E0E3B6E010E30EC22F01B
:10574800030E5EEC2AF012000E0E3B6E010E30ECDA
:1057580022F0590E0001B66FFE0EB76FA7EC23F0CA
:1057680012003901A39F0001FE513F01B76F60008D
:10577800F7F3B6FF0101634B642B645104E1640E37
:10578800635DD8A01200CBEC27F0000E0101646F16
:10579800000E636F120079EC2DF03F01BC97000EEC
:1057A8000001F16F000E556E000E566E000EC86FA8
:1057B800000EC96F000ECA6F000EE86F000E0101DF
:1057C8006C6F3F01B88F1200FF0E3816030E3916A2
:1057D8003F017AA90CD0060ED89038363936E82E13
:1057E800FBD73950796F6000E3F078FF1200395029
:1057F800796F6000E3F078FF1200FF0E3816030E91
:1058080039163F017EA90CD0060ED89038363936A5
:10581800E82EFBD739507D6F6000E3F07CFF120063
:1058280039507D6F6000E3F07CFF1200386E38A0BD
:1058380003D03F01BB8502D03F01BB9538A202D0FF
:10584800BB8701D0BB9738A402D0BB8901D0BB99D4
:1058580038A602D0BB8B1200BB9B1200600000F17F
:1058680038F0600004F139F03A6A8E0E3B6E000E93
:105878003C6EE2EC1FF06000E0F040F06000E4F005
:1058880041F06000E8F042F01200465048026F0014
:10589800CCFF4AF06F00D0FF4BF046504902F3505E
:1058A8004B2647504802F3504B26600028F146F03B
:1058B80060002CF147F012000BD06000E7F0D9FF30
:1058C8006000EBF0DAFFDF5087EC29F0394A3A2A1A
:1058D8006000E7F0D9FF6000EBF0DAFFDF50D8B4E2
:1058E8001200EBD70001AA6FAB0E0001606F000E2B
:1058F800616F430E626FFE0E636F6000A8F264F082
:10590800656B0FEC00F0AB0E2C6E000E2D6E1200C6
:10591800AA0E0001606F000E616F430E626FFE0EEB
:10592800636F6000B0F064F06000B4F065F00FECF5
:1059380000F0AA0E2C6E000E2D6E12004450451079
:105948004610D8B406D0000E441A000E451A800E30
:10595800461A600010F144F0600014F145F0600050
:1059680018F146F012005450010D460EF324D96E7A
:10597800010EF420DA6E6F0043F7DFFF542A070E9A
:10598800546402D0000E546E0001EC2B12005850E3
:10599800010D000EF324D96E030EF420DA6E6F00A9
:1059A800A3F7DFFF582A3F0E586402D0000E586E46
:1059B8000001F22B1200600E0001D15D090ED259D0
:1059C800D8A012003F01CA830001E505D8B412002F
:1059D800010EE56F030EE86F1200000E3901C06F6B
:1059E800000EC16F000EC26F000EC36F000EC46FB1
:1059F800000EC56F000EC66F000EC76F12003A6E1C
:105A08003F01BB913A501AEC2CF03F01BB832A0EA0
:105A1800396E8E0EE82EFED7392EFCD73F01BB9388
:105A28001200146E600050F015F0600048F016F097
:105A380060004CF017F0150E076E000E086E3CEC77
:105A480021F01200010E3F01AE6F000EAD6F000E87
:105A5800AF6F7C0EAB6F000EAA6F3901A495F00EE4
:105A68003F01AC6F12003F01B2A508D0B29133508C
:105A7800B16F6000CBF0B0FFB28112003350B16F4C
:105A88006000CBF0B0FF12000000000000000040F2
:105A9800002A400040400040000000004000204034
:095AA80023404000000000000052
:105AB2000001E505D8A41200340ED15D080ED259BA
:105AC200D8B012003F01CA93000E0001E56F120028
:105AD2003A6E000E396E3A0E3A6005D02F0E3A64D5
